:100000000C9435010C94630A0C943C0A0C94150A68
:100010000C94EE090C945D010C945D010C94C709DD
:100020000C945D010C94460C0C946B050C94DD054E
:100030000C945D010C945D010C945D010C945D01C8
:100040000C945D010C94850B0C945D010C945D0186
:100050000C945D010C945D010C945D010C947D0980
:100060000C945D010C945D010C945D010C945D0198
:100070000C945D010C945D010C945D010C945D0188
:100080000C945D010C945D010C945D010C945D0178
:100090000C945D010C945D010C945D010C945D0168
:1000A0000C945D010C945D010C945D019502980225
:1000B00087028B028F02B902B902B9029C02A00228
:1000C000A402AA02AE02B902B4028B0EA50EBA0EA9
:1000D000D50EE00E1E0F250F2F0F3A0F440F440FC1
:1000E000440F440F440F440F440F440F440F440F78
:1000F000440F440F440F440F440F440F440F440F68
:10010000440F440F440F440F440F8B0EA00EA50E56
:10011000BA0ED50EE00EFB0E060F110F036EDB3686
:100120003D9A9999993DABAAAA2A3E000000803FCA
:10013000072C7AA5BA6CC590DA3B9365FC8BBC534F
:10014000F810FD3C5692834DBD879D3AB63DCBC914
:10015000BF5BBE73DA0FC93F0000000200090F0049
:1001600000030401000C000000000000000000007B
:1001700000000000000000080B000202020100095C
:100180000400000102020000052400100105240102
:10019000010104240206052406000107058103105D
:1001A000004009040100020A0000000705020240A5
:1001B0000000070583024000000403090441726443
:1001C00075696E6F204C4C430041726475696E6FA7
:1001D000204C656F6E6172646F00120100020000B6
:1001E0000040412336800001010203011201000298
:1001F000EF020140412336800001010203010000AB
:100200000000250028002B002E0031000000000017
:100210002300260029002C002F00040404040403FA
:100220000405020202020403020202020606060696
:1002300006060404020202040404080201104080BD
:1002400040102040804080080204018040201002BD
:1002500001108010204040200000000024002700F2
:100260002A002D003000C817351911241FBECFEF0A
:10027000DAE0DEBFCDBF11E0A0E0B1E0E6E6FAE3F0
:1002800002C005900D92A039B107D9F724E0A0E98A
:10029000B1E001C01D92A834B207E1F711E0C4E358
:1002A000D1E004C02197FE010E945F19C333D1073A
:1002B000C9F70E9419110C94261D0C940000CF93CD
:1002C000DF931F92CDB7DEB76983DC01ED91FC911E
:1002D0000280F381E02D41E050E0BE016F5F7F4F6F
:1002E00009950F90DF91CF91089583E08093E90005
:1002F0008091F200882319F08AE38093E800089542
:10030000FC018485958597FD0BC09FB7F89482E02A
:100310008093E9008091F2009FBF90E001960895DC
:100320009FB7F89482E08093E9008091F2009FBF2C
:1003300090E008958F929F92AF92BF92CF92DF92FA
:10034000EF92FF920F931F93CF93DF935C016B01AA
:100350008A0180910C01882309F45EC08091FB0121
:10036000882309F459C08091F90180FF05C080916C
:10037000E00082608093E000E8018AEFF82E93E0CD
:10038000E92E2FE3822E3AE3932E209709F43DC005
:100390008FB7F894E092E9009091E80095FF06C0CD
:1003A0009091F200282D291B922F01C090E08FBF61
:1003B00091110AC0FA94FF2079F161E070E080E0C9
:1003C00090E00E943709E1CF292F30E0C217D30710
:1003D0000CF49C2F8FB7F894E092E9002091E8008C
:1003E00025FF11C0292F30E0C21BD30BF60191501D
:1003F00020F041914093F100FACFC20ED31E9091AC
:10040000E80095FF13C08FBFC0CF5D9884E680934E
:10041000FA011016110644F081E090E0F501938393
:10042000828380E090E005C0C80103C09092E8009C
:10043000EACFDF91CF911F910F91FF90EF90DF9066
:10044000CF90BF90AF909F908F9008950F931F9380
:10045000CF93DF931F92CDB7DEB78C01FC0184856B
:10046000958597FF0EC0CE0101960E944105019728
:1004700019F4298130E002C02FEF3FEFF8013587F2
:100480002487F801848595850F90DF91CF911F9186
:100490000F910895CF93DF931F92CDB7DEB7FC0184
:1004A0008485958597FD05C02FEF3FEF358724871D
:1004B0000BC0CE0101960E944105019719F4898174
:1004C00090E002C08FEF9FEF0F90DF91CF910895E2
:1004D0000E94641B362F90E0FC01E85AFE4F4491C5
:1004E000FC01E75CFD4F2491FC01E65EFD4F849129
:1004F000882309F451C04423E1F150E0FA01319717
:10050000EF30F105B0F5EA5AFF4F0C945F19909166
:1005100080009F7707C0909180009F7D03C09091DD
:100520008000977F9093800024C094B59F7702C08D
:1005300094B59F7D94BD1DC0909190009F7707C09A
:10054000909190009F7D03C090919000977F909331
:1005500090000FC09091C0009F7703C09091C000A1
:100560009F7D9093C00005C09091C200977F9093AB
:10057000C200E82FF0E0EE0FFF1FE250FE4FA59102
:10058000B4918FB7F894EC91311103C020952E23CC
:1005900001C02E2B2C938FBF089580919F03811152
:1005A0000DC082E080939B0384E080939C031092B3
:1005B0009E0310929D0381E080939F038BE993E05B
:1005C00008954091990350919A0320919703309197
:1005D000980342175307B4F49091E8009570E1F343
:1005E0009091E80092FD19C08093F10080919903E9
:1005F00090919A0301968F739927892B19F48EEFA6
:100600008093E8008091990390919A0301969093CA
:100610009A038093990381E0089580E00895CF9232
:10062000DF92EF92FF920F931F93CF93DF931F926E
:10063000CDB7DEB7182F062FE42E862F880F8E5FDA
:1006400099830E94E10283E00E94E102F12EC12E13
:100650009981D92E8C2D8F19801798F4F601E7FE19
:1006600002C0849101C080810E94E102182F80E0C5
:100670000E94E1028123FFEFCF1ADF0A8111EACF46
:1006800001C081E00F90DF91CF911F910F91FF90FA
:10069000EF90DF90CF900895DF92EF92FF920F934B
:1006A0001F93CF93DF93D82E8A017B01E40EF51EB2
:1006B000EB01CE15DF0571F0D7FE03C0FE0184917A
:1006C00001C088810E94E10221968111F2CF8FEF53
:1006D0009FEF01C0C801DF91CF911F910F91FF9053
:1006E000EF90DF9008950F931F93CF93DF931F92A6
:1006F000CDB7DEB782E0898342E450E067E771E07E
:1007000080E80E944C030E94CD02DC0112960D91FC
:100710001C9113970115110569F0D801ED91FC9119
:100720000280F381E02DBE016F5F7F4FC801099504
:1007300097FF07C089810F90DF91CF911F910F9193
:100740000895F80100851185E5CF615030F02091C2
:10075000F100FC0120830196F8CF289884E680936D
:10076000A7030895CF92DF92EF92FF920F931F930A
:10077000CF93DF936C017A018B01C0E0D0E0CE15FE
:10078000DF0589F0D8016D918D01D601ED91FC91C5
:100790000190F081E02DC6010995892B11F47E01AD
:1007A00002C02196ECCFC701DF91CF911F910F912D
:1007B000FF90EF90DF90CF9008950F931F93CF930A
:1007C000DF93EC0160E070E0CB01E99120ED2E0FAA
:1007D0002A30C0F4AAE0B0E09B01AC010E94041DE5
:1007E0000E2FEE0F110B220B330BDC01CB01800F10
:1007F000911FA21FB31FBC01CD0160537109810974
:100800009109E3CFDF91CF911F910F9108950F933D
:100810001F93CF93C1E08091A2028D3221F0C0E0FE
:1008200002EA12E002C003EA12E0C8010E94DD03FE
:100830009B01AC01A4E6B0E00E94041DF801DF01B9
:10084000219130ED320F3A30D0F32E3269F5119606
:100850002C91119730ED320F3A3030F5022E000C0A
:10086000330B205331094AE0429F8001439F100D12
:100870001124012E000C220B330B600F711F821FFD
:10088000931F12960C9120ED200F2A3068F4002E51
:10089000000C110B00531109012E000C220B330B1D
:1008A000600F711F821F931FCC2339F090958095A4
:1008B000709561957F4F8F4F9F4FCF911F910F91F3
:1008C00008954F925F926F927F928F929F92AF9214
:1008D000BF92CF92DF92EF92FF92CF93DF9382EAA3
:1008E00092E00E94DD032B013C0124E630E040E071
:1008F00050E00E94C31C9B01AC0160EA76E881E0F5
:1009000090E00E94B31C6B017C01E2EAF2E081916D
:1009100090ED980F9A30D8F38E3219F5EF0180E1FF
:10092000882E87E2982EA12CB12CA99180ED8A0FF8
:100930008A30B8F40A2E000CBB0BD097A5019401A5
:100940000E940F1DC60ED71EE81EF91EC501B40178
:100950002AE030E040E050E00E94C31C49015A0107
:10096000E4CFC701B6016D5F7F4F8F4F9F4F26E0E9
:1009700030E040E050E00E94C31C69017A01C301ED
:10098000B20124E630E040E050E00E94C31C60E485
:1009900072E48FE090E00E94B31C6C0D7D1D8E1DF3
:1009A0009F1DDF91CF91FF90EF90DF90CF90BF9090
:1009B000AF909F908F907F906F905F904F90089531
:1009C0000F931F93CF93DF93EC0161E00E94FB082C
:1009D00060E08C2F0E946A020FE010E0C8010197CE
:1009E000F1F761E08C2F0E946A02C8010197F1F7CC
:1009F00060E08C2F0E946A02C8010197F1F760E065
:100A00008C2F0E94FB089E013327F901E75CFD4F04
:100A10006491F901E65EFD4FE491F0E0EE0FFF1FF7
:100A2000E45FFD4F8591949100E21EE420E030E008
:100A3000462F0E94D410611571058105910539F08A
:100A4000DC01CB010196A11DB11DBF7003C080E088
:100A500090E0DC018C01892B11F400E21EE48BE1B3
:100A600093E00197F1F761E08C2F0E94FB0860E0B2
:100A70008C2F0E946A02C801DF91CF911F910F91C4
:100A80000895FC018091FB01811103C08FEF9FEF5E
:100A900008959FB7F89482E08093E9002091F200D6
:100AA00030E01216130614F421E030E02115310570
:100AB00059F0289884E68093A7038091F100808301
:100AC0008091F200882319F09FBFC90108958BE639
:100AD0008093E800F9CF1F920F920FB60F92112466
:100AE0008F939F938091E1009091E100937F909389
:100AF000E10083FF0FC01092E90091E09093EB00BA
:100B00001092EC0092E39093ED001092FB0198E0BC
:100B10009093F00082FF20C093E09093E9009091C1
:100B2000F200992319F09AE39093E8009091FA016A
:100B3000992339F09091FA0191509093FA019923F9
:100B400089F19091A703992339F09091A7039150CF
:100B50009093A703992341F184FF10C08091E20094
:100B60008E7E81608093E2008091E1008F7E809391
:100B7000E1008091F9018E7E806111C080FF16C076
:100B80008091E2008E7E80618093E2008091E1009E
:100B90008E7E8093E1008091F9018E7E816080934A
:100BA000F90104C05D9ACDCF289AD6CF9F918F913D
:100BB0000F900FBE0F901F9018951F920F920FB6B7
:100BC0000F921124CF92DF92EF92FF920F931F9317
:100BD0002F933F934F935F936F937F938F939F9345
:100BE000AF93BF93EF93FF93CF93DF93CDB7DEB770
:100BF0006C97DEBFCDBF1092E9008091E80083FFC3
:100C0000FAC168E0CE0145960E94A50382EF809369
:100C1000E8008D8987FF05C09091E80090FFFCCF28
:100C200003C09EEF9093E800982F907609F0C6C01D
:100C30009E892F89188D91110CC0803829F48091DC
:100C4000F8018093F10002C01092F1001092F100BF
:100C500047C1422F50E0512B913051F4811140C1D6
:100C60004130510509F03CC18091F8018D7F0BC0E6
:100C7000933061F4811134C14130510509F030C124
:100C80008091F80182608093F8012AC1953041F487
:100C90008091E80080FFFCCF20682093E30020C112
:100CA000963009F05FC0EB8CFC8C1092E90010923A
:100CB0009A0310929903123091F5109298031092B2
:100CC00097030E94730399E0BE016F5F7F4FDB01C2
:100CD000E92F1D92EA95E9F799831A8391E09E83A3
:100CE00090EA98879AEF99872091990330919A0317
:100CF000275F3F4F3C832B838D831092E900109236
:100D00009A0310929903F0929803E092970349E0B6
:100D100050E080E00E944C030E947303E1C0F09217
:100D20009803E09297030E94CD02DC011296ED90A9
:100D3000FC901397E114F10409F4C0C0D701ED91C0
:100D4000FC910480F581E02DBE016B5E7F4FC701F1
:100D50000995009719F00CF0C3C0C6C0F701E084F4
:100D6000F184E8CF973009F4BFC0983021F481E0D6
:100D70008093F100B5C0993009F0B2C0837009F0DA
:100D8000B3C0ECE3F1E081E021E036E39081992308
:100D900061F08093E9002093EB0091919093EC0037
:100DA0003093ED008F5F873089F78EE78093EA00FC
:100DB0001092EA008F898093FB0192C08B8D9C8DED
:100DC0001092E90010929A0310929903909398035D
:100DD00080939703898D811156C08E899D89913AA0
:100DE00059F4813209F080C047E050E065E071E0DD
:100DF00080E00E944C0374C0913209F075C08332C8
:100E000089F4888D90E0982F88272F89822BA0E085
:100E1000B0E08093010190930201A0930301B0938D
:100E200004015EC0803269F48091E80082FFFCCF4B
:100E300067E085E091E00E94A5038BEF8093E800D6
:100E400006C0823209F04CC08F8980930C018091DA
:100E5000F701882319F0EEEFFAE002C0E0E0F8E0D5
:100E60008091050190910601A0910701B0910801C0
:100E7000803B9440A105B10509F088C080910C0128
:100E800080FFA0C083C00E94CD02DC0112960D91AC
:100E90001C9113970115110539F1D801ED91FC91C1
:100EA0000190F081E02DBE016B5E7F4FC801099576
:100EB000811116C0F80100851185ECCF1130C1F009
:100EC000133091F48F89882309F455C08230E9F4F6
:100ED00040E860E189EC91E00E940F03882321F053
:100EE0008EEF8093E80087C081E28093EB0083C09F
:100EF0008B8D9C8D089711F4109396038091960327
:100F0000811136C06AED71E038C0813029F440E8C3
:100F10006BE08DEB91E0E0CF833031F70E94CD02A2
:100F2000DC011296ED90FC9013978E010F5F1F4F1E
:100F30006801E114F10479F0D701ED91FC9106808C
:100F4000F781E02DB801C7010995080F111DF701C0
:100F5000E084F184EECFD8011C92F60101900020CC
:100F6000E9F73197BF016C197D0940E0C601B4CFA4
:100F70006CEE71E002C069EB71E06115710509F476
:100F8000B3CFFB01449150E080E833CF0FB6F89423
:100F9000A895809160008861809360001092600045
:100FA0000FBEA895EE3F2AE0F20739F08091FE0AC5
:100FB0009091FF0A9183808393CF1092FF0A109241
:100FC000FE0A8ECFEE3F8AE0F80731F080819181F2
:100FD0009093FF0A8093FE0A87E797E791838083C7
:100FE0009BE088E10FB6F894A895809360000FBE4F
:100FF0009093600075CF6C960FB6F894DEBF0FBE6D
:10100000CDBFDF91CF91FF91EF91BF91AF919F91B4
:101010008F917F916F915F914F913F912F911F9190
:101020000F91FF90EF90DF90CF900F900FBE0F9039
:101030001F9018956115710579F0FB010190002052
:10104000E9F73197AF01461B570BDC01ED91FC919D
:101050000280F381E02D099480E090E008953FB78D
:10106000F8948091440490914504A0914604B09175
:10107000470426B5A89B05C02F3F19F00196A11D76
:10108000B11D3FBFBA2FA92F982F8827820F911D1E
:10109000A11DB11DBC01CD0142E0660F771F881F65
:1010A000991F4A95D1F708950895209192013091A2
:1010B00093012817390771F4909190018091910163
:1010C000981741F0E0919001F0E0E752FC4F8081E9
:1010D00090E008958FEF9FEF089508951F93CF93A9
:1010E000DF93DC015C962D913C915D9721153105D4
:1010F00039F481E090E013969C938E9312973DC053
:101100005196ED91FC91529750969C915097892F52
:1011100080951FB75E964C915E9741FB772770F9DB
:1011200041FD6095F8944081772311F0492B01C06F
:1011300048234083E9012197F1F748E0508160FF9F
:1011400002C0592B01C058235083E9012197F1F7C0
:101150006695415099F7772321F090818923808308
:1011600003C08081982B90831FBF5C968D919C91CA
:101170005D970197F1F721E030E0C901DF91CF9150
:101180001F910895209192013091930128173907FA
:1011900071F4809191012091900190E0805C9F4FCB
:1011A000821B910960E470E00E944B19089580E071
:1011B00090E008952091920130919301281739070A
:1011C000B9F49091900180919101981789F0E09184
:1011D0009001F0E0E752FC4F80812091900130E0D7
:1011E0002F5F3F4F2F7333272093900190E0089596
:1011F0008FEF9FEF0895CF93DF9390E0FC01E75CC2
:10120000FD4F2491FC01E65EFD4F8491882361F13E
:1012100090E0880F991FFC01E85AFD4FC591D491C9
:10122000FC01E250FE4FA591B491611109C09FB736
:10123000F8948881209582238883EC912E230BC01B
:10124000623061F49FB7F8943881822F80958323B0
:101250008883EC912E2B2C939FBF06C08FB7F894F8
:10126000E8812E2B28838FBFDF91CF9108958F9235
:101270009F92AF92BF92CF92DF92EF92FF926B015B
:101280007C010E942F084B015C01C114D104E104D0
:10129000F104F1F00E942F08DC01CB0188199909B3
:1012A000AA09BB09883E9340A105B10570F321E06E
:1012B000C21AD108E108F10888EE880E83E0981E72
:1012C000A11CB11CC114D104E104F10419F7DDCF54
:1012D000FF90EF90DF90CF90BF90AF909F908F9056
:1012E00008952FB7F8946091400470914104809163
:1012F0004204909143042FBF08951F920F920FB69E
:101300000F9211242F933F938F939F93AF93BF938B
:101310008091400490914104A0914204B091430413
:1013200030913F0423E0230F2D3720F40196A11DB7
:10133000B11D05C026E8230F0296A11DB11D209303
:101340003F048093400490934104A0934204B093DF
:1013500043048091440490914504A0914604B091C7
:1013600047040196A11DB11D809344049093450448
:10137000A0934604B0934704BF91AF919F918F9182
:101380003F912F910F900FBE0F901F9018951F92B5
:101390000F920FB60F9211242F933F934F935F93A9
:1013A0006F937F938F939F93AF93BF93EF93FF932D
:1013B000E0911501F09116010995FF91EF91BF9110
:1013C000AF919F918F917F916F915F914F913F91DD
:1013D0002F910F900FBE0F901F9018951F920F9294
:1013E0000FB60F9211242F933F934F935F936F93F8
:1013F0007F938F939F93AF93BF93EF93FF93E0916E
:101400001301F09114010995FF91EF91BF91AF91F4
:101410009F918F917F916F915F914F913F912F910C
:101420000F900FBE0F901F9018951F920F920FB63E
:101430000F9211242F933F934F935F936F937F935A
:101440008F939F93AF93BF93EF93FF93E09111011D
:10145000F09112010995FF91EF91BF91AF919F918A
:101460008F917F916F915F914F913F912F910F904D
:101470000FBE0F901F9018951F920F920FB60F92EC
:1014800011242F933F934F935F936F937F938F9389
:101490009F93AF93BF93EF93FF93E0910F01F09170
:1014A00010010995FF91EF91BF91AF919F918F919D
:1014B0007F916F915F914F913F912F910F900FBE50
:1014C0000F901F9018951F920F920FB60F92112434
:1014D0002F933F934F935F936F937F938F939F933C
:1014E000AF93BF93EF93FF93E0910D01F0910E0145
:1014F0000995FF91EF91BF91AF919F918F917F914E
:101500006F915F914F913F912F910F900FBE0F9070
:101510001F901895CF92DF92EF92FF92CF93DF93B7
:10152000EC01603282E078070CF03DC077FD06C028
:10153000653B71052CF064EB70E002C060E070E088
:10154000898128E830E06901C81AD10887FDD39461
:10155000CC0CDD1CCC0CDD1C0D2C000CEE08FF08A7
:101560008A8128E532E0281B310987FD3395220F57
:10157000331F220F331FC901330FAA0BBB0B9C0172
:10158000AD012C193D094E095F09DB010E940F1DB9
:1015900024EB30E040E050E00E94E51CC20ED31E78
:1015A000E41EF51EB60188818C3080F5998148E8EB
:1015B00050E0491B510997FD5395440F551F440FA7
:1015C000551F6417750784F09A8128E532E0291BBE
:1015D000310997FD3395220F331F220F331FAB01C3
:1015E000261737070CF4A90142505109440F551F23
:1015F0002FB7F89490E0FC01EE0FFF1F8E0F9F1F96
:10160000FC01E55EFB4F528341832FBFDF91CF91F9
:10161000FF90EF90DF90CF9008951F93CF93DF93CB
:10162000EC01162F88818C3008F04EC061E0812FCC
:101630000E94FB088881E82FF0E09F01220F331FF2
:10164000E20FF31FE55EFB4F1F739081907C192B17
:10165000108319821A826CE00E943F199CE0899FD6
:10166000B001112440E050E09A01260F371FF90124
:10167000EE0FFF1F2E0F3F1FF901E55EFB4F90811C
:1016800096FD16C04F5F5F4F4C30510569F78111D1
:101690000FC01092800082E080938100109285003C
:1016A00010928400B19A80916F00826080936F00E5
:1016B000E881F0E0CF01880F991FE80FF91FE55E80
:1016C000FB4F8081806480838881DF91CF911F915F
:1016D0000895FC0190911A049C30A0F481E0890FD8
:1016E00080931A049083892F90E0FC01EE0FFF1F76
:1016F0008E0F9F1FFC01E55EFB4F88EB9BE0928302
:10170000818308958FEF808308951F920F920FB603
:101710000F9211242F933F934F935F936F937F9377
:101720008F939F93AF93BF93EF93FF93809119048F
:1017300087FF05C010928500109284001BC0209185
:101740001904022E000C330B80911A0490E0281724
:10175000390784F480911904082E000C990BFC01C0
:10176000EE0FFF1F8E0F9F1FFC01E55EFB4F808178
:1017700086FD15C0809119048F5F80931904209114
:101780001904022E000C330B80911A0490E02817E4
:101790003907C4F4809119048C3064F113C080912E
:1017A0001904082E000C990BFC01EE0FFF1F8E0F81
:1017B0009F1FFC01E55EFB4F808160E08F730E94FC
:1017C0006A02D8CF8091840090918500049680347D
:1017D0009C4918F480E49CE905C0809184009091B4
:1017E0008500049690938900809388008FEF809302
:1017F00019043BC020918400309185008091190428
:10180000082E000C990BFC01EE0FFF1F8E0F9F1F7F
:10181000FC01E55EFB4F81819281820F931F9093C3
:1018200089008093880080911904082E000C990B80
:10183000FC01EE0FFF1F8E0F9F1FFC01E55EFB4FAB
:10184000808186FF12C080911904082E000C990B2C
:10185000FC01EE0FFF1F8E0F9F1FFC01E55EFB4F8B
:10186000808161E08F730E946A02FF91EF91BF91C6
:10187000AF919F918F917F916F915F914F913F9128
:101880002F910F900FBE0F901F9018951F920F92DF
:101890000FB60F9211242F933F934F935F936F9343
:1018A0007F938F939F93AF93BF93EF93FF93E091B9
:1018B0009201F0919301309709F451C0968DA6855D
:1018C000B785858591FF04C09C91892329F447C081
:1018D0009C91892309F043C0A389B4899C9185898F
:1018E000809589238C93868997890197F1F7608D7C
:1018F000718DA685B785558538E020E0CB0101972D
:10190000F1F7822F90E095958795282F4C914523EC
:1019100009F02068315091F7868D81FD20958091E6
:10192000910190E001968F739927309190013817BB
:1019300049F0A0919101B0E0A752BC4F2C93809345
:10194000910103C0868D8160868F828D938D019772
:10195000F1F7A389B4899C918589892B8C93FF9198
:10196000EF91BF91AF919F918F917F916F915F9117
:101970004F913F912F910F900FBE0F901F90189590
:10198000E0919201F0919301E817F90769F4A389B6
:10199000B4899C918589809589238C9310929301B9
:1019A0001092920181E0089580E008958F929F92B5
:1019B000AF92BF92CF92DF92EF92FF921F93CF939D
:1019C000DF934B015C010E9471096B017C01D2E045
:1019D00011E08FEB92E00E94C208892B09F483C2C8
:1019E0008FEB92E00E94DA08C82F8091B5029091A7
:1019F000B602A091B702B091B8020196A11DB11D27
:101A00008093B5029093B602A093B702B093B80248
:101A1000C43209F447C2E091B302C53234F4CA308B
:101A200071F0CD3009F04BC20AC0CA3241F0CC325D
:101A300009F045C28091A0028C278093A002EF306C
:101A400008F022C2F0E0EE55FD4F10828091A10215
:101A5000882309F428C12091A2023FEB320F822F84
:101A6000022E000C990B363010F4C79707C0215690
:101A7000263018F48755910901C0C097282F229568
:101A8000207F3091A3024FEB430F832F032E000CD6
:101A9000990B463010F4C79707C03156363018F40A
:101AA0008755910901C0C097820F9091A0028913B8
:101AB000F0C08091B402882309F4E6C18091B90294
:101AC0009091BA0201969093BA028093B9028091E4
:101AD000940290919502A0919602B0919702809302
:101AE000900290939102A0939202B09393028091FE
:101AF0009C0290919D02A0919E02B0919F028093C2
:101B0000980290939902A0939A02B0939B028091BD
:101B1000B102882309F464C0813009F0B5C1809115
:101B2000500290915102A0915202B09153028093C1
:101B30004C0290934D02A0934E02B0934F028091BD
:101B4000580290915902A0915A02B0915B02809381
:101B5000540290935502A0935602B093570280917D
:101B6000600290916102A0916202B0916302809341
:101B70005C0290935D02A0935E02B0935F0280913D
:101B8000680290916902A0916A02B0916B02809301
:101B9000640290936502A0936602B09367028091FD
:101BA000780290917902A0917A02B0917B028093A1
:101BB000740290937502A0937602B093770280919D
:101BC000800290918102A0918202B0918302809361
:101BD0007C0290937D02A0937E02B0937F0254C159
:101BE0008091700290917102A0917202B091730283
:101BF00080936C0290936D02A0936E02B0936F027B
:101C00008091500290915102A0915202B0915302E2
:101C100080934C0290934D02A0934E02B0934F02DA
:101C20008091600290916102A0916202B091630282
:101C300080935C0290935D02A0935E02B0935F027A
:101C40008091680290916902A0916A02B0916B0242
:101C50008093640290936502A0936602B09367023A
:101C600080918E0290918F0290938D0280938C02CE
:101C70008091880290918902A0918A02B0918B0292
:101C80008093840290938502A0938602B09387028A
:101C9000FBC08091BB029091BC0201969093BC0264
:101CA0008093BB02F1C09091B20291111CC0A2EAD4
:101CB000B2E043E851E0CD01FC012191CF012223A4
:101CC00009F42BC1FA013191AF012317A9F3E9E817
:101CD000F1E08D91882309F423C191918917C9F30B
:101CE000D093B102D1C0E091B102E23009F4CCC08E
:101CF0008091A202882309F4C7C020E2E29FF0018C
:101D00001124E92B3197E932F10508F0BDC0EB59F8
:101D1000FF4F0C945F190E94070460935002709368
:101D2000510280935202909353020E947109609372
:101D30009402709395028093960290939702A4C0A8
:101D400091E0813409F07DC07DC00E946104609300
:101D500060027093610280936202909363020E941A
:101D6000710960939C0270939D0280939E029093F0
:101D70009F028AC0833509F087C0809160029091EC
:101D80006102A0916202B0916302B095A095909516
:101D900081959F4FAF4FBF4F809360029093610238
:101DA000A0936202B09363026FC00E9461046093CB
:101DB00068027093690280936A0290936B0264C018
:101DC000873509F061C08091680290916902A09105
:101DD0006A02B0916B02B095A095909581959F4F46
:101DE000AF4FBF4F8093680290936902A0936A023D
:101DF000B0936B0249C00E9407046093780270930D
:101E0000790280937A0290937B023EC00E9407047D
:101E10006093800270938102809382029093830288
:101E200033C082EA92E00E94DD036093580270930F
:101E3000590280935A0290935B0226C091E081334D
:101E40000CF490E09093B4021FC082EA92E00E94EA
:101E5000691B992790938F0280938E0215C00E9470
:101E60000704609388027093890280938A0290939A
:101E70008B020AC00E940704609370027093710283
:101E800080937202909373028091B2028F5F80936D
:101E9000B2021092B30281E0CA3209F080E080936E
:101EA000A10297CD1092B3021092B2021092A0023A
:101EB000D093B1021092A1021092B4028ACDEE30FA
:101EC00040F481E08E0F8093B302F0E0EE55FD4FB9
:101ED000C0838091A10281117CCD8091A002C8278E
:101EE000C093A00276CD0E947109DC01CB018C1950
:101EF0009D09AE09BF0988159905AA05BB0508F417
:101F000068CDDF91CF911F91FF90EF90DF90CF9040
:101F1000BF90AF909F908F9008951093B102B4CF6F
:101F20001092B102B1CF4F925F926F927F928F92D7
:101F30009F92AF92BF92CF92DF92EF92FF920F9358
:101F40001F93CF93DF93CDB7DEB760970FB6F894AA
:101F5000DEBF0FBECDBF29833A834B835C836D8385
:101F60007E838F839887A986BA86CB86DC86ED86AA
:101F7000FE860F87188B49805A806B807C80CD80CD
:101F8000DE80EF80F884A70196016D857E858F85C0
:101F900098890E9479194B015C01A301920169851E
:101FA0007A858B859C850E9479199B01AC01C501BE
:101FB000B4010E94011A4B015C016093D503709338
:101FC000D6038093D7039093D803A3019201609125
:101FD00094017091950180919601909197010E94D2
:101FE00079199B01AC01C501B4010E94F51BA70141
:101FF00096010E947A1960960FB6F894DEBF0FBE64
:10200000CDBFDF91CF911F910F91FF90EF90DF90A7
:10201000CF90BF90AF909F908F907F906F905F9088
:102020004F900895CF93DF93EC0160E070E08DE86E
:1020300093E00E948A0ABE018AE893E00E948A0A1D
:1020400061E081E00E946A0268EE73E080E090E067
:102050000E94D60C60E081E00E946A0260EA7FE0A4
:1020600080E090E00E94D60C6AE570E08DE893E095
:10207000DF91CF910C948A0ACF92DF92EF92FF9278
:102080006B017C019B01AC0160E070E084EB92E4A9
:102090000E9479190E94731A83E993E00E948A0AC8
:1020A00020E030E044EB52E4C701B6010E947A1907
:1020B0000E94731A80E993E00E948A0A66E57FE035
:1020C00080E090E0FF90EF90DF90CF900C94D60CE2
:1020D000CF92DF92EF92FF926B017C0120E030E023
:1020E00044EB52E40E947A190E94731A83E993E048
:1020F0000E948A0AA701960160E070E084EB92E4F6
:102100000E9479190E94731A80E993E00E948A0A5A
:1021100066E57FE080E090E0FF90EF90DF90CF9069
:102120000C94D60C8F929F92AF92BF92CF92DF9277
:10213000EF92FF92CF93DF93EC0188809980AA8081
:10214000BB80A5019401C501B4010E94F51B9B0150
:10215000AC010E947A190E940F1B6B017C016887F9
:1021600079878A879B879B01AC01C501B4010E94D6
:10217000011A6C877D878E879F87A70196016C81E6
:102180007D818E819F810E94011A688B798B8A8B59
:102190009B8BDF91CF91FF90EF90DF90CF90BF901E
:1021A000AF909F908F900895CF92DF92EF92FF9221
:1021B0000F931F93E82FF92F05C001501109210932
:1021C000310961F1908196239417B9F305C001504C
:1021D00011092109310911F1908196239413F7CF48
:1021E000C12CD12CE12CF12C0AC08FEFC81AD80ACF
:1021F000E80AF80A0C151D052E053F0579F08081C7
:102200008623841791F36C2D7D2D8E2D9F2D1F918C
:102210000F91FF90EF90DF90CF90089560E070E015
:1022200080E090E01F910F91FF90EF90DF90CF90B2
:102230000895CF93DF93CDB7DEB727970FB6F89405
:10224000DEBF0FBECDBF789484B5826084BD84B5F7
:10225000816084BD85B5826085BD85B5816085BDA1
:1022600080916E00816080936E0010928100809159
:1022700081008260809381008091810081608093E1
:102280008100809180008160809380008091910026
:102290008260809391008091910081608093910091
:1022A000809190008160809390008091C100846053
:1022B0008093C1008091C10082608093C1008091B1
:1022C000C10081608093C1008091C30081608093D0
:1022D000C3008091C00082608093C0008091C200E2
:1022E00081608093C20080917A00846080937A003C
:1022F00080917A00826080937A0080917A00816078
:1023000080937A0080917A00806880937A0010929E
:10231000FB011092F8011092F9018091D7008160C1
:102320008093D70080EA8093D80089B5806189BD09
:1023300089B5826089BD09B400FEFDCF61E070E01F
:1023400080E090E00E9437098091D8008F7C806106
:102350008093D8008091E000807F8093E00080919E
:10236000E1008E7E8093E1008DE08093E200559A3B
:10237000209AEEEFFFE7859194918B3F9C4D19F4E5
:1023800081E08093F7011092CF011092D00110925A
:10239000D1011092D20110929D0110929E011092D3
:1023A0009F011092A00160ED77E080E090E00E9434
:1023B00037098CEF91E09093CE018093CD01FBE142
:1023C000EF2EF12C10910C016AE070E080E090E0BB
:1023D0000E94370911110BC081E0E81AF10839F0A9
:1023E00064E670E080E090E00E943709EBCFE09176
:1023F000CD01F091CE018FEF9FEF958784870E94EA
:10240000710900919D0110919E0120919F013091D1
:10241000A001DC01CB01801B910BA20BB30B8197B8
:10242000A105B10538F463E070E080E090E00E941F
:102430003709E5CF0E94710960939D0170939E0159
:1024400080939F019093A0016AE671E08091CD0195
:102450009091CE010E941A086AE070E080E090E05E
:102460000E94370981E08093A1018FEF9FEF909345
:102470000902809308021092DA021092D902109297
:10248000D8021092D7021092D6021092D50282E49E
:1024900090E09093DC028093DB028091CB0298EF76
:1024A000980F943048F022EF280F243028F026EEC1
:1024B000280F233008F060C02FE030E03093D602C0
:1024C0002093D50220E430E03093D8022093D70245
:1024D00027E230E03093DA022093D902943058F0AA
:1024E00092EF980F943038F08A51833008F448C541
:1024F000A0E0B0E047C5A8E6B0E0E8E6F0E0808103
:1025000081608C938091CB0298EF980F943058F0B3
:1025100022EF280F243038F026EE280F233018F051
:1025200020E030E002C02BE630E03093D30220936D
:10253000D202943010F49CEF09C08E3071F08F30CD
:1025400071F0803171F0813171F09AEE980F81E075
:1025500001C0880F9A95EAF707C088E005C082E0BD
:1025600003C084E001C081E08093D4028091DB024B
:102570009091DC020197F1F78091D9029091DA02F3
:10258000892B21F18091920190919301E2E08F3BA0
:102590009E07E1F0009711F00E94C00C8091DD02CF
:1025A0008E7F8093DD0210929101109290018FEB4B
:1025B00092E09093930180939201E091D202F09186
:1025C000D30290818091D402892B808361E081E0E5
:1025D0000E94FB0865E070E083E993E00E940D0B28
:1025E00066E070E080E993E00E940D0B64E070E02B
:1025F0008DE893E00E940D0B68E070E08AE893E0BC
:102600000E940D0B6AE570E083E993E00E948A0A5C
:102610006AE570E080E993E00E948A0A6AE570E06A
:102620008DE893E00E948A0A6EEE72E080E090E00E
:102630000E94D60C80E090E8ADECBBEB80931A03CF
:1026400090931B03A0931C03B0931D0340E050E440
:1026500067EA7BEB40931E0350931F0360932003B4
:102660007093210340E050E06FEA7BE34093060360
:1026700050930703609308037093090300E010EE82
:102680002AEA3BEB00930A0310930B0320930C03FD
:1026900030930D0300E010E02FEA3BEB0093420380
:1026A000109343032093440330934503C12CE0EE81
:1026B000DE2EEAEAEE2EEBE3FE2EC0924603D09227
:1026C0004703E0924803F092490300932E031093CE
:1026D0002F03209330033093310300E010E222EB0C
:1026E0003BEB009332031093330320933403309376
:1026F000350340936A0350936B0360936C037093AC
:102700006D0340E050E262EB7BE340936E03509335
:102710006F036093700370937103809356039093DB
:102720005703A0935803B093590380E090ECA5EBB6
:10273000BBE380935A0390935B03A0935C03B09335
:102740005D0380E090E8ADECBBE38093F2029093F0
:10275000F302A093F402B093F50240E050EC65EB75
:102760007BEB4093F6025093F7026093F80270936C
:10277000F9028093DE029093DF02A093E002B0930F
:10278000E10280E090E4A7EABBE38093E202909349
:10279000E302A093E402B093E5022091120330918A
:1027A0001303409114035091150360912603709117
:1027B000270380912803909129030E947A1927E426
:1027C0003EE94BEE52E40E9479196093D701709371
:1027D000D8018093D9019093DA01209116033091AA
:1027E0001703409118035091190360912A037091C7
:1027F0002B0380912C0390912D030E947A1922E7DC
:1028000034E247E052E40E947A196093DB0170934E
:10281000DC018093DD019093DE0120913A03309139
:102820003B0340913C0350913D0360914E037091F6
:102830004F0380915003909151030E947A192BE825
:102840003BE94BEE52E40E9479196093E7017093E3
:10285000E8018093E9019093EA0120913E033091D1
:102860003F034091400350914103609152037091A6
:10287000530380915403909155030E947A192BE1E0
:102880003FE147E052E40E947A196093EB017093B4
:10289000EC018093ED019093EE0120916203309161
:1028A00063034091640350916503609176037091D6
:1028B000770380917803909179030E947A1927E435
:1028C0003EE94BEE52E40E9479196093EF01709358
:1028D000F0018093F1019093F20120916603309111
:1028E0006703409168035091690360917A03709186
:1028F0007B0380917C0390917D030E947A192AE8E2
:1029000039E147E052E40E947A196093F301709331
:10291000F4018093F5019093F6012091EA02309141
:10292000EB024091EC025091ED026091FE02709139
:10293000FF0280910003909101030E947A192DE714
:1029400031EA4BEE52E40E9479196093DF017093F3
:10295000E0018093E1019093E2012091EE02309139
:10296000EF024091F0025091F102609102037091E8
:10297000030380910403909105030E947A1928E3D0
:102980003FE147E052E40E947A196093E3017093BB
:10299000E4018093E5019093E60161E088E00E9404
:1029A000FB0862E370E08DE893E00E948A0A609180
:1029B00082037091830380918403909185030E9428
:1029C0003C10F0912B01FB8320912C012C838091F2
:1029D0002D018D8320902E0130902F019091300198
:1029E0009E83E0913101EF8390903201809033011A
:1029F000F0913401F983209135012A8340905C02E3
:102A000050905D0260905E0270905F02C090640220
:102A1000D0906502E0906602F09067028091980283
:102A200090919902A0919A02B0919B028F3FEFEF93
:102A30009E07AE07BE0781F00E94710900919802BF
:102A40001091990220919A0230919B02DC01CB01F6
:102A5000801B910BA20BB30B8093D3019093D401F5
:102A6000A093D501B093D601FFEF4F16F9EC5F06A6
:102A7000FAE96F06FBE37F0659F0C301B2010E9439
:102A8000961B20E034E244E759E40E94011A04C096
:102A900060E070E08AE794E4609398017093990194
:102AA00080939A0190939B012FEF421629EC5206D6
:102AB0002AE962062BE3720659F0C701B6010E94AB
:102AC000961B20E034E244E759E40E94011A04C056
:102AD00060E070E08AE794E460939401709395015C
:102AE000809396019093970162E370E08DE893E004
:102AF0000E948A0A8AE090E00E94E004893D9742A1
:102B000090F560917E0370917F0380918003909196
:102B100081030E94681060917E0370917F03809111
:102B20008003909181030E943C1080E090E00E941D
:102B3000121062E370E08DE893E00E948A0A6091CF
:102B40007E0370917F0380918003909181030E94A6
:102B50003C1060917E0370917F038091800390917F
:102B600081030E94681040909801509099016090F4
:102B70009A0170909B01AB80BC80CD80D22CE32C5D
:102B8000FE800F81192D282D39814A8150913601FF
:102B900060913701709138018091390190913A012B
:102BA0000E94930F9B01AC01C301B2010E948F1BD5
:102BB00087FD96C0409098015090990160909A01CD
:102BC00070909B01A0903301B0903401C09035010A
:102BD000D0903601E0903701F09038010091390132
:102BE00010913A0120912301309124014091250157
:102BF000509126016091270170912801809129014F
:102C000090912A010E94930F9B01AC01C301B20174
:102C10000E948F1B87FD64C04090980150909901DD
:102C200060909A0170909B01A0901B01B0901C01D4
:102C3000C0901D01D0901E01E0901F01F090200176
:102C4000009121011091220120912B0130912C0142
:102C500040912D0150912E0160912F017091300112
:102C600080913101909132010E94930F9B01AC0140
:102C7000C301B2010E94041B181694F14090980100
:102C80005090990160909A0170909B01A09023014F
:102C9000B0902401C0902501D0902601E09027013A
:102CA000F09028010091290110912A0120911B0127
:102CB00030911C0140911D0150911E0160911F0136
:102CC0007091200180912101909122010E94930F27
:102CD0009B01AC01C301B2010E94041B1816FCF455
:102CE00060E070E08DE893E00E948A0A6AE570E097
:102CF00083E993E00E948A0A6AE570E080E993E044
:102D00000E948A0A6AE570E08DE893E00E948A0AD0
:102D10006BE170E08DE893E00E940D0BE1CF60E085
:102D200088E00E946A026CE771E08CEF91E00E94FB
:102D30001A0869E771E08CEF91E00E941A08409050
:102D400098015090990160909A0170909B01A09019
:102D5000E701B090E801C090E901D090EA01E0906D
:102D6000EB01F090EC010091ED011091EE0120914A
:102D7000EF013091F0014091F1015091F201609129
:102D8000F3017091F4018091F5019091F6010E9498
:102D9000930F9B01AC01C301B2010E948F1B87FD01
:102DA00096C0409098015090990160909A0170905F
:102DB0009B01A090EF01B090F001C090F101D09084
:102DC000F201E090F301F090F4010091F50110910F
:102DD000F6012091DF013091E0014091E101509135
:102DE000E2016091E3017091E4018091E50190912D
:102DF000E6010E94930F9B01AC01C301B2010E9446
:102E00008F1B87FD64C0409098015090990160909D
:102E10009A0170909B01A090D701B090D801C0900A
:102E2000D901D090DA01E090DB01F090DC01009153
:102E3000DD011091DE012091E7013091E801409120
:102E4000E9015091EA016091EB017091EC018091F0
:102E5000ED019091EE010E94930F9B01AC01C30123
:102E6000B2010E94041B181694F1409098015090F2
:102E7000990160909A0170909B01A090DF01B09041
:102E8000E001C090E101D090E201E090E301F09018
:102E9000E4010091E5011091E6012091D701309104
:102EA000D8014091D9015091DA016091DB01709114
:102EB000DC018091DD019091DE010E94930F9B0166
:102EC000AC01C301B2010E94041B181674F51091E5
:102ED000000160918203709183038091840390913B
:102EE0008503112309F43FC00E946810609182039A
:102EF0007091830380918403909185030E946810F0
:102F00006AE570E083E993E00E948A0A6AE570E06E
:102F100080E993E00E948A0A60E070E0CB010E94A1
:102F2000D60C81E08127809300018BE090E00E9425
:102F3000E0048936924420F480E090E00E94121070
:102F400089E090E00E94E0048936924420F483EB0B
:102F500090E00E94121080E090E0892B09F44ECDA1
:102F60000E94000045CD0E943C1060918203709148
:102F7000830380918403909185030E943C10C0CF0D
:102F8000A8E6B0E0833008F4B8CAE0E0F0E0B7CAE1
:102F9000CF92DF92EF92FF921092FF011092FE010A
:102FA00098EEC92E93E0D92EE12CF12CC0920002AC
:102FB000D0920102E0920202F092030286E491E0D4
:102FC0009093FD018093FC018FEF9FEF9093090296
:102FD0008093080283E993E00E94690B80E993E003
:102FE0000E94690B8DE893E00E94690B8AE893E0E8
:102FF0000E94690B80E090E0A0ECB0E4809386032F
:1030000090938703A0938803B09389036EE47AECCE
:1030100087E290E40E94E61920E030E044E353E4C4
:103020000E94F51B2BED3FE049E450E40E94011A99
:10303000609382037093830380938403909385034A
:1030400087ED99EEA9E4B1E480937E0390937F032A
:10305000A0938003B09381038AE693E00E949210CC
:1030600086E593E00E94921082E493E00E94921021
:103070008EE293E00E9492108AE193E00E94921007
:1030800086E093E00E94921082EF92E00E949210FC
:103090008EED92E00E9492101092C2021092C10234
:1030A000C092C302D092C402E092C502F092C6025E
:1030B00086E591E09093C0028093BF021092D60201
:1030C0001092D5021092D8021092D7021092DA0212
:1030D0001092D9021092DC021092DB026091DD02A4
:1030E0006E7F6D7F6093DD026695617081E0682779
:1030F0008CE00E946A0261E08CE00E94FB08E5E43B
:10310000F2E0E491E093CF02E6E2F2E0E491F0E055
:10311000EE0FFF1FE250FE4F859194919093D102E4
:103120008093D00260E08DE00E94FB088091DD0278
:1031300081FD04C061E08DE00E946A028DE0809311
:10314000CB02E6E4F2E0E491E093CC02E7E2F2E0C5
:10315000E491F0E0EE0FFF1FE45FFD4F8591949145
:103160009093CE028093CD024FEF5FEFBA01409370
:103170004C0250934D0260934E0270934F02109296
:1031800054021092550210925602109257028FEF7D
:1031900099ECAAE9BBE380935C0290935D02A09353
:1031A0005E02B0935F028093640290936502A093E5
:1031B0006602B093670280936C0290936D02A093B5
:1031C0006E02B0936F028093740290937502A09385
:1031D0007602B093770280937C0290937D02A09355
:1031E0007E02B0937F0240938402509385026093E5
:1031F0008602709387028FEF90E090938D02809308
:103200008C024093900250939102609392027093CB
:103210009302409398025093990260939A0270939C
:103220009B021092A0021092A10282E08093B10250
:103230001092B2021092B3021092B4021092B50230
:103240001092B6021092B7021092B8021092BA020F
:103250001092B9021092BC021092BB021092A2020C
:10326000FF90EF90DF90CF90089586E591E09093E6
:10327000C0028093BF028FEB92E00C94C00C991BAC
:1032800079E004C0991F961708F0961B881F7A955D
:10329000C9F78095089597FB072E16F4009407D080
:1032A00077FD09D00E94651907FC05D03EF4909582
:1032B00081959F4F0895709561957F4F0895EE0F0A
:1032C000FF1F0590F491E02D0994AA1BBB1B51E14F
:1032D00007C0AA1FBB1FA617B70710F0A61BB70B86
:1032E000881F991F5A95A9F780959095BC01CD012B
:1032F00008955058BB27AA270E9491190C94791C55
:103300000E946B1C38F00E94721C20F039F49F3F21
:1033100019F426F40C94681C0EF4E095E7FB0C9469
:10332000621CE92F0E948A1C58F3BA1762077307C0
:103330008407950720F079F4A6F50C94AC1C0EF4E4
:10334000E0950B2EBA2FA02D0B01B90190010C01B5
:10335000CA01A0011124FF27591B99F0593F50F4CD
:10336000503E68F11A16F040A22F232F342F442725
:10337000585FF3CF469537952795A795F04053951D
:10338000C9F77EF41F16BA0B620B730B840BBAF0ED
:103390009150A1F0FF0FBB1F661F771F881FC2F758
:1033A0000EC0BA0F621F731F841F48F4879577956C
:1033B0006795B795F7959E3F08F0B0CF9395880F26
:1033C00008F09927EE0F9795879508959F939F771B
:1033D000EEE389379E0728F4ECE1F1E00E94F01A51
:1033E0000CC00E94A91A9058A2EA2AED3FE049ECCD
:1033F0005FE30E9491190E94791C0F9007FC90587E
:1034000008950E94151A0C94791C0E94721C58F0A1
:103410000E946B1C40F029F45F3F29F00C94621C61
:1034200051110C94AD1C0C94681C0E948A1C68F30A
:103430009923B1F3552391F3951B550BBB27AA276D
:1034400062177307840738F09F5F5F4F220F331FA7
:10345000441FAA1FA9F335D00E2E3AF0E0E832D06F
:1034600091505040E695001CCAF72BD0FE2F29D072
:10347000660F771F881FBB1F261737074807AB0744
:10348000B0E809F0BB0B802DBF01FF2793585F4FB9
:103490003AF09E3F510578F00C94621C0C94AD1CE0
:1034A0005F3FE4F3983ED4F3869577956795B7959B
:1034B000F7959F5FC9F7880F911D9695879597F9A6
:1034C0000895E1E0660F771F881FBB1F621773071F
:1034D0008407BA0720F0621B730B840BBA0BEE1F34
:1034E00088F7E09508950E947A1A6894B1110C94B7
:1034F000AD1C08950E94921C88F09F5798F0B92F38
:103500009927B751B0F0E1F0660F771F881F991F18
:103510001AF0BA95C9F714C0B13091F00E94AC1CF2
:10352000B1E008950C94AC1C672F782F8827B85F02
:1035300039F0B93FCCF3869577956795B395D9F770
:103540003EF490958095709561957F4F8F4F9F4F7A
:103550000895DF93CF931F930F938B01EC01E0E36A
:10356000F1E00E94C91A0E94791C9801AE018B01FA
:10357000EC0160E070E080E89FE30E9479190E940E
:103580000F1B9801AE010F911F91CF91DF910C9409
:10359000081CDF93CF931F930F93FF92EF92DF925C
:1035A0007B018C01689406C0DA2EEF010E94081C92
:1035B000FE01E894A5912591359145915591A6F389
:1035C000EF010E949119FE019701A801DA9469F7B1
:1035D000DF90EF90FF900F911F91CF91DF910895B1
:1035E0009F938F937F936F93FF93EF939B01AC0116
:1035F0000E94F51BEF91FF910E94C91A2F913F91F4
:103600004F915F910C94F51B0E94D11B08F48FEF32
:10361000089519F416F40C94681C0C944F1B0E9426
:10362000921CB8F39923C9F3B6F39F57550B87FF44
:103630000E945D1B0024A0E640EA90018058569548
:10364000979528F4805C660F771F881F20F0261757
:103650003707480730F4621B730B840B202931298C
:103660004A2BA69517940794202531254A2758F709
:10367000660F771F881F20F026173707480730F49A
:10368000620B730B840B200D311D411DA09581F73A
:10369000B901842F9158880F9695879508959F3F7B
:1036A00031F0915020F4879577956795B795880FFD
:1036B000911D9695879597F9089591505040660F02
:1036C000771F881FD2F7089581E090E0F8940C945A
:1036D000261DFC0188279927E89421912032E9F3DF
:1036E000293010F02E30C8F32B3241F02D3239F44E
:1036F000689404C00E94871B820F911D2191205362
:103700002A30C0F31EF4909581959F4F08957AE07A
:10371000979F902D879F802D910D112408950E94D1
:10372000D11B08F481E00895E89409C097FB3EF4AA
:1037300090958095709561957F4F8F4F9F4F9923FE
:10374000A9F0F92F96E9BB279395F695879577957C
:103750006795B795F111F8CFFAF4BB0F11F460FF3C
:103760001BC06F5F7F4F8F4F9F4F16C0882311F094
:1037700096E911C0772321F09EE8872F762F05C0A8
:10378000662371F096E8862F70E060E02AF09A9543
:10379000660F771F881FDAF7880F9695879597F938
:1037A0000895990F0008550FAA0BE0E8FEEF1616D2
:1037B0001706E807F907C0F012161306E407F50725
:1037C00098F0621B730B840B950B39F40A2661F099
:1037D000232B242B252B21F408950A2609F4A1403C
:1037E000A6958FEF811D811D08950E94081C0C94E1
:1037F000791C0E946B1C38F00E94721C20F09523EB
:1038000011F00C94621C0C94681C11240C94AD1CD7
:103810000E948A1C70F3959FC1F3950F50E0551FCD
:10382000629FF001729FBB27F00DB11D639FAA2715
:10383000F00DB11DAA1F649F6627B00DA11D661F64
:10384000829F2227B00DA11D621F739FB00DA11D85
:10385000621F839FA00D611D221F749F3327A00D3F
:10386000611D231F849F600D211D822F762F6A2FDB
:1038700011249F5750409AF0F1F088234AF0EE0F40
:10388000FF1FBB1F661F771F881F91505040A9F76D
:103890009E3F510580F00C94621C0C94AD1C5F3F60
:1038A000E4F3983ED4F3869577956795B795F795A9
:1038B000E7959F5FC1F7FE2B880F911D9695879521
:1038C00097F9089597F99F6780E870E060E00895A0
:1038D0009FEF80EC089500240A9416161706180628
:1038E0000906089500240A94121613061406050604
:1038F0000895092E0394000C11F4882352F0BB0F95
:1039000040F4BF2B11F460FF04C06F5F7F4F8F4FF7
:103910009F4F089557FD9058440F551F59F05F3F32
:1039200071F04795880F97FB991F61F09F3F79F0E1
:1039300087950895121613061406551FF2CF469563
:10394000F1DF08C0161617061806991FF1CF8695E5
:103950007105610508940895E894BB2766277727C9
:10396000CB0197F90895DB018F939F930E94041D6B
:10397000BF91AF91A29F800D911DA39F900DB29F0B
:10398000900D11240895A1E21A2EAA1BBB1BFD0164
:103990000DC0AA1FBB1FEE1FFF1FA217B307E4072E
:1039A000F50720F0A21BB30BE40BF50B661F771F86
:1039B000881F991F1A9469F7609570958095909566
:1039C0009B01AC01BD01CF010895052E97FB1EF4AC
:1039D00000940E94FC1C57FD07D00E94C31C07FCEA
:1039E00003D04EF40C94FC1C5095409530952195D5
:1039F0003F4F4F4F5F4F089590958095709561951B
:103A00007F4F8F4F9F4F08950E94171DA59F900DC8
:103A1000B49F900DA49F800D911D11240895B7FFB0
:103A20000C94041D0E94041D821B930B0895A29FF9
:103A3000B001B39FC001A39F700D811D1124911D82
:103A4000B29F700D811D1124911D089511E0C4E3F2
:103A5000D1E004C0FE010E945F192196C533D10751
:063A6000C9F7F894FFCF46
:103A660001FFFFFFFF00E1000000000000540854C2
:103A76000854085408540801000000479EEBC2721F
:103A86002407427DA1EBC2381F07428B9BEBC21B6A
:103A96001F0742479EEBC28A19074200C180810078
:103AA6000000000000005F019A0180014A02260220
:103AB6007501000000006E08B203C208DA08550856
:103AC6006D08000090420000803F564D4450565FFE
:103AD600317C315F564D4450560D0A00496E73696C
:103AE6006465004750524D43004750474741000028
:00000001FF
