:100000000C9435000C945D000C945D000C945D0024
:100010000C945D000C945D000C945D000C945D00EC
:100020000C945D000C945D000C945D000C945D00DC
:100030000C945D000C945D000C945D000C945D00CC
:100040000C94AE020C945D000C947C020C9456024D
:100050000C945D000C945D000C945D000C945D00AC
:100060000C945D000C945D00F80211241FBECFEFCC
:10007000D8E0DEBFCDBF11E0A0E0B1E0E8ECFDE0EC
:1000800002C005900D92A233B107D9F722E0A2E396
:10009000B1E001C01D92A032B207E1F710E0C5E364
:1000A000D0E004C02197FE010E94D504C433D107DB
:1000B000C9F70E9437030C94E2060C940000EBE3AE
:1000C000F1E0A089B18982E08C93A485B5851C926A
:1000D000A685B7858FEC8C93108EA489B58986E0B0
:1000E0008C93A289B3898C9180618C93A289B38906
:1000F0008C9188608C93A289B3898C9180688C9351
:100100000288F389E02D80818F7D80830895CF92CE
:10011000DF92EF92FF920F931F932FB7F894C09046
:100120003701D0903801E0903901F0903A012FBFAB
:10013000DC01CB018C0D9D1DAE1DBF1D4FB7F8948A
:1001400000913701109138012091390130913A0125
:100150004FBF0C151D052E053F0528F08017910790
:10016000A207B30758F71F910F91FF90EF90DF9010
:10017000CF900895CF92DF92EF92FF920F931F934B
:10018000CF93DF936C017A018B01C0E0D0E0CE15F4
:10019000DF0589F0D8016D918D01D601ED91FC91BB
:1001A0000190F081E02DC6010995892B11F47E01A3
:1001B00002C02196ECCFC701DF91CF911F910F9123
:1001C000FF90EF90DF90CF900895FC01918D828D8C
:1001D000981761F0828DDF01A80FB11D5D968C919B
:1001E000928D9F5F9F73928F90E008958FEF9FEFA6
:1001F0000895FC01918D828D981731F0828DE80F62
:10020000F11D858D90E008958FEF9FEF0895FC011B
:10021000918D228D892F90E0805C9F4F821B9109E8
:100220008F73992708958BE391E00E94070121E0E5
:10023000892B09F420E0822F0895FC01848DDF01D1
:10024000A80FB11DA35ABF4F2C91848D90E0019649
:100250008F739927848FA689B7892C93A089B18938
:100260008C9180648C93938D848D981306C0028842
:10027000F389E02D80818F7D80830895EF92FF9236
:100280000F931F93CF93DF93EC0181E0888F9B8DB9
:100290008C8D981305C0E889F989808185FD24C07B
:1002A000F62E0B8D10E00F5F1F4F0F731127E02EFE
:1002B0008C8DE8120CC00FB607FCFACFE889F989DB
:1002C000808185FFF5CFCE010E941D01F1CF8B8D7E
:1002D000FE01E80FF11DE35AFF4FF0820B8FEA8910
:1002E000FB898081806207C0EE89FF896083E8898D
:1002F000F98980818064808381E090E0DF91CF91F3
:100300001F910F91FF90EF900895CF93DF93EC0131
:10031000888D8823C9F0EA89FB89808185FD05C025
:10032000A889B9898C9186FD0FC00FB607FCF5CF5F
:10033000808185FFF2CFA889B9898C9185FFEDCFA7
:10034000CE010E941D01E7CFDF91CF91089580E09B
:1003500090E0892B29F00E94130181110C94000078
:1003600008950E9481056115710579F0FB010190E6
:100370000020E9F73197AF01461B570BDC01ED91E7
:10038000FC910280F381E02D099480E090E00895D3
:100390004F925F926F927F92EF92FF920F931F9313
:1003A000CF93DF93CDB7DEB7A1970FB6F894DEBF3A
:1003B0000FBECDBF7C01FA01CB0119A2223008F497
:1003C0002AE08E010F5D1F4F422E512C612C712CA3
:1003D000BF01A30192010E94C006F901CA010150A8
:1003E00011096A3014F4605D01C0695CD8016C9336
:1003F000232B242B252B61F7B801C7010E94B301E1
:10040000A1960FB6F894DEBF0FBECDBFDF91CF919E
:100410001F910F91FF90EF907F906F905F904F90A2
:100420000895CF92DF92EF92FF920F931F93CF9395
:10043000DF9300D000D01F92CDB7DEB769837A83F7
:100440008B839C830091000110910101CE010196E4
:100450007C01680194E0C90ED11CF70161917F0114
:10046000C8016D830E94AA066D81681719F0C80142
:100470000E94B2060F5F1F4F0C151D0571F780918A
:100480000001909101010496909301018093000175
:100490000F900F900F900F900F90DF91CF911F91C1
:1004A0000F91FF90EF90DF90CF9008951F920F92E1
:1004B0000FB60F9211242F933F934F935F936F9337
:1004C0007F938F939F93AF93BF93EF93FF938BE3B0
:1004D00091E00E941D01FF91EF91BF91AF919F911B
:1004E0008F917F916F915F914F913F912F910F90DD
:1004F0000FBE0F901F9018951F920F920FB60F927C
:1005000011242F938F939F93EF93FF93E0914B01CF
:10051000F0914C018081E0915101F091520182FDF6
:1005200012C09081809154018F5F8F73209155018B
:10053000821751F0E0915401F0E0E55CFE4F958F99
:100540008093540101C08081FF91EF919F918F9121
:100550002F910F900FBE0F901F9018951F920F9222
:100560000FB60F9211242F933F938F939F93AF93C6
:10057000BF938091370190913801A0913901B091DA
:100580003A013091360123E0230F2D3720F40196F4
:10059000A11DB11D05C026E8230F0296A11DB11DA6
:1005A000209336018093370190933801A09339014D
:1005B000B0933A018091320190913301A0913401BE
:1005C000B09135010196A11DB11D80933201909328
:1005D0003301A0933401B0933501BF91AF919F9146
:1005E0008F913F912F910F900FBE0F901F901895F4
:1005F000EBE3F1E01382128288EE93E0A0E0B0E03A
:1006000084839583A683B78386E091E0918380837A
:1006100085EC90E09587848784EC90E097878687C7
:1006200080EC90E0918B808B81EC90E0938B828BBF
:1006300082EC90E0958B848B86EC90E0978B868B98
:10064000118E128E138E148EE8EDF1E01682178251
:1006500010861186128613861486158616861786CE
:10066000108A118A128A138A148A158A0895CF93E0
:10067000DF9300D000D01F92CDB7DEB7789484B559
:10068000826084BD84B5816084BD85B5826085BD8E
:1006900085B5816085BD80916E00816080936E001C
:1006A000109281008091810082608093810080910E
:1006B00081008160809381008091800081608093BF
:1006C00080008091B10084608093B1008091B0007F
:1006D00081608093B00080917A00846080937A007A
:1006E00080917A00826080937A0080917A008160A4
:1006F00080937A0080917A00806880937A001092CB
:10070000C10010921C0210921D0210921E02109243
:100710001F021092DA011092DB011092DC0110929C
:10072000DD0168EB7BE080E090E00E9487008BE3D6
:1007300091E090931B0280931A020E945F002FB7F2
:10074000F8948091370190913801A0913901B091CE
:100750003A012FBF8093DA019093DB01A093DC0173
:10076000B093DD0162E171E080911A0290911B0269
:100770000E94B3016AE070E080E090E00E94870090
:1007800081E08093EE010E945F006091000180E0B3
:1007900090E06D830E94AA066D81681721F080E0C9
:1007A00090E00E94B2066091010181E090E06D83CB
:1007B0000E94AA066D81681721F081E090E00E94F6
:1007C000B20680E090E00E94AA068093000181E0DA
:1007D00090E00E94AA068093010165E276E089E438
:1007E00090E40E94110266EB73EF8DE290E40E94A8
:1007F000110266EB73EF8DE99FE30E94110204E0A2
:1008000010E0CE0101965C014E0195E0890E911C2D
:100810008091000190910101081719070CF0C2C0E6
:1008200075016801CA18DB08C7018C0D9D1D0E9467
:10083000AA06F70181937F01E815F905A9F7C98098
:10084000DA80EB80FC80A7019601C701B6010E9407
:100850007C05882319F064E271E01AC02601370193
:10086000E89477F82FEF3FEF4FE75FE7C301B2015E
:100870000E947C05811111C02FEF3FEF4FE75FE72A
:10088000C301B2010E94860518163CF468E271E0CB
:100890008BE391E00E94B3017CC02FEF3FEF4FE765
:1008A0005FE4C701B6010E94770518161CF46CE2DC
:1008B00071E0EECF2FEF3FEF4FE75FECC701B601DE
:1008C0000E94860587FDF3CF20E030E0A901C70133
:1008D000B6010E94860587FF0FC0E0913B01F091B1
:1008E0003C010190F081E02D6DE28BE391E00995F0
:1008F000F7FAF094F7F8F0942EE632E143E05AE389
:10090000C701B6010E94DC046B017C010E9448050E
:100910002B013C010E948B059B01AC01C701B60174
:100920000E94DB046B017C012AE0B301A2018BE38E
:1009300091E00E94C80160E371E08BE391E00E94C6
:10094000B30184E0782E7A94772019F120E030E02A
:1009500040E251E4C701B6010E94EC051B012C01E5
:100960000E9448056B01E12CF12C2AE0B701A60199
:100970008BE391E00E94C801C701B6010E948B057C
:100980009B01AC01C201B1010E94DB046B017C013F
:10099000DACF61E271E08BE391E00E94B3010C5F7A
:1009A0001F4F36CF0E94A701FDCFEE0FFF1F05900E
:1009B000F491E02D09945058BB27AA270E94F30414
:1009C0000C9470060E94620638F00E94690620F0BE
:1009D00039F49F3F19F426F40C945F060EF4E09569
:1009E000E7FB0C945906E92F0E94810658F3BA17C9
:1009F000620773078407950720F079F4A6F50C9435
:100A0000A3060EF4E0950B2EBA2FA02D0B01B90111
:100A100090010C01CA01A0011124FF27591B99F074
:100A2000593F50F4503E68F11A16F040A22F232F80
:100A3000342F4427585FF3CF469537952795A795D0
:100A4000F0405395C9F77EF41F16BA0B620B730B77
:100A5000840BBAF09150A1F0FF0FBB1F661F771FE8
:100A6000881FC2F70EC0BA0F621F731F841F48F49D
:100A7000879577956795B795F7959E3F08F0B0CF26
:100A80009395880F08F09927EE0F9795879508950D
:100A90000E94890688F09F5798F0B92F9927B7517F
:100AA000B0F0E1F0660F771F881F991F1AF0BA9512
:100AB000C9F714C0B13091F00E94A306B1E00895C7
:100AC0000C94A306672F782F8827B85F39F0B93FB9
:100AD000CCF3869577956795B395D9F73EF49095C5
:100AE0008095709561957F4F8F4F9F4F08950E941D
:100AF000C80508F48FEF08950E94C805880B990B6C
:100B0000089581E090E0F8940C94E2060E94C805F4
:100B100008F481E00895E89409C097FB3EF49095AD
:100B20008095709561957F4F8F4F9F4F9923A9F0C6
:100B3000F92F96E9BB279395F69587957795679555
:100B4000B795F111F8CFFAF4BB0F11F460FF1BC099
:100B50006F5F7F4F8F4F9F4F16C0882311F096E92C
:100B600011C0772321F09EE8872F762F05C06623DA
:100B700071F096E8862F70E060E02AF09A95660F93
:100B8000771F881FDAF7880F9695879597F908954C
:100B9000990F0008550FAA0BE0E8FEEF161617068E
:100BA000E807F907C0F012161306E407F50798F0F6
:100BB000621B730B840B950B39F40A2661F0232B0F
:100BC000242B252B21F408950A2609F4A140A6958B
:100BD0008FEF811D811D08950E94FF050C94700602
:100BE0000E94620638F00E94690620F0952311F0F9
:100BF0000C9459060C945F0611240C94A4060E94D0
:100C0000810670F3959FC1F3950F50E0551F629FC9
:100C1000F001729FBB27F00DB11D639FAA27F00D55
:100C2000B11DAA1F649F6627B00DA11D661F829F7C
:100C30002227B00DA11D621F739FB00DA11D621F61
:100C4000839FA00D611D221F749F3327A00D611D7E
:100C5000231F849F600D211D822F762F6A2F112460
:100C60009F5750409AF0F1F088234AF0EE0FFF1F93
:100C7000BB1F661F771F881F91505040A9F79E3FEA
:100C8000510580F00C9459060C94A4065F3FE4F3E0
:100C9000983ED4F3869577956795B795F795E79540
:100CA0009F5FC1F7FE2B880F911D9695879597F949
:100CB000089597F99F6780E870E060E008959FEFDE
:100CC00080EC089500240A941616170618060906E3
:100CD000089500240A9412161306140605060895B2
:100CE000092E0394000C11F4882352F0BB0F40F43A
:100CF000BF2B11F460FF04C06F5F7F4F8F4F9F4F7A
:100D0000089557FD9058440F551F59F05F3F71F0FB
:100D10004795880F97FB991F61F09F3F79F0879562
:100D20000895121613061406551FF2CF4695F1DFEB
:100D300008C0161617061806991FF1CF869571057B
:100D4000610508940895E894BB2766277727CB01AF
:100D500097F90895F999FECF92BD81BDF89A992728
:100D600080B50895262FF999FECF1FBA92BD81BD97
:100D700020BD0FB6F894FA9AF99A0FBE019608951D
:100D8000A1E21A2EAA1BBB1BFD010DC0AA1FBB1F8F
:100D9000EE1FFF1FA217B307E407F50720F0A21B01
:100DA000B30BE40BF50B661F771F881F991F1A946E
:100DB00069F760957095809590959B01AC01BD0198
:080DC000CF010895F894FFCF64
:100DC8000400000000003E01BA000701E500F90038
:100DD8008501564D4450565F317C315F564D445025
:100DE800560D0A006E616E00696E66006F766600C9
:020DF8002E00CB
:107E0000112484B714BE81FFF0D085E080938100F7
:107E100082E08093C00088E18093C10086E0809377
:107E2000C20080E18093C4008EE0C9D0259A86E02C
:107E300020E33CEF91E0309385002093840096BBD3
:107E4000B09BFECF1D9AA8958150A9F7CC24DD24C4
:107E500088248394B5E0AB2EA1E19A2EF3E0BF2EE7
:107E6000A2D0813461F49FD0082FAFD0023811F036
:107E7000013811F484E001C083E08DD089C08234E0
:107E800011F484E103C0853419F485E0A6D080C0E4
:107E9000853579F488D0E82EFF2485D0082F10E0AE
:107EA000102F00270E291F29000F111F8ED06801E7
:107EB0006FC0863521F484E090D080E0DECF843638
:107EC00009F040C070D06FD0082F6DD080E0C81688
:107ED00080E7D80618F4F601B7BEE895C0E0D1E017
:107EE00062D089930C17E1F7F0E0CF16F0E7DF06D8
:107EF00018F0F601B7BEE89568D007B600FCFDCFD4
:107F0000A601A0E0B1E02C9130E011968C91119780
:107F100090E0982F8827822B932B1296FA010C0160
:107F200087BEE89511244E5F5F4FF1E0A038BF0790
:107F300051F7F601A7BEE89507B600FCFDCF97BE46
:107F4000E89526C08437B1F42ED02DD0F82E2BD052
:107F50003CD0F601EF2C8F010F5F1F4F84911BD097
:107F6000EA94F801C1F70894C11CD11CFA94CF0C13
:107F7000D11C0EC0853739F428D08EE10CD085E9AC
:107F80000AD08FE07ACF813511F488E018D01DD067
:107F900080E101D065CF982F8091C00085FFFCCF94
:107FA0009093C60008958091C00087FFFCCF809118
:107FB000C00084FD01C0A8958091C6000895E0E648
:107FC000F0E098E1908380830895EDDF803219F02E
:107FD00088E0F5DFFFCF84E1DECF1F93182FE3DFCA
:107FE0001150E9F7F2DF1F91089580E0E8DFEE27F6
:047FF000FF270994CA
:027FFE00040479
:0400000300007E007B
:00000001FF