:100000000C94EE000C946B050C9444050C941D05A7
:100010000C94F6040C9416010C9416010C94CF0465
:100020000C9416010C946D070C94A90C0C941B0DE8
:100030000C9416010C9416010C9416010C941601E4
:100040000C9416010C94AC060C9416010C94160139
:100050000C9416010C9416010C9416010C94850452
:100060000C9416010C9416010C9416010C941601B4
:100070000C9416010C9416010C9416010C941601A4
:100080000C9416010C9416010C9416010C94160194
:100090000C9404080C9416010C9416010C9416018F
:1000A0000C9416010C9416010C9416014B034E038C
:1000B0003D03410345036F036F036F035203560370
:1000C0005A03600364036F036A030000000200091F
:1000D0000F0000030401000C0000000000000000FD
:1000E00000000000000000000000000000240027C5
:1000F000002A002D00300000000000250028002B01
:10010000002E003100000000002300260029002CF2
:10011000002F000404040404030405020202020484
:100120000302020202060606060606040402020292
:1001300004040408020110408040102040804080E8
:10014000080204018040201002011080102040406D
:1001500020080B0002020201000904000001020253
:1001600000000524001001052401010104240206F9
:100170000524060001070581031000400904010061
:10018000020A000000070502024000000705830282
:100190004000000403090441726475696E6F204CCD
:1001A0004C430041726475696E6F204C656F6E61DF
:1001B00072646F001201000200000040412336808B
:1001C00000010102030112010002EF02014041237C
:1001D0003680000101020301B317B60F11241FBEC0
:1001E000CFEFDAE0DEBFCDBF12E0A0E0B1E0ECED92
:1001F000F9E302C005900D92AA35B107D9F726E0C0
:10020000AAE5B2E001C01D92A034B207E1F710E008
:10021000CDEED0E004C02197FE010E94C119CC3E72
:10022000D107C9F70E94C00F0C94E11C0C94000088
:10023000CF93DF931F92CDB7DEB76983DC01ED91D9
:10024000FC910280F381E02D41E050E0BE016F5F40
:100250007F4F09950F90DF91CF91089583E08093B0
:10026000E9008091F200882319F08AE38093E80086
:100270000895FC018485958597FD0BC09FB7F89480
:1002800082E08093E9008091F2009FBF90E00196A8
:1002900008959FB7F89482E08093E9008091F2007E
:1002A0009FBF90E008953FB7F894809135039091F7
:1002B0003603A0913703B091380326B5A89B05C03B
:1002C0002F3F19F00196A11DB11D3FBFBA2FA92FD5
:1002D000982F8827820F911DA11DB11DBC01CD0152
:1002E00042E0660F771F881F991F4A95D1F708953E
:1002F000089520913B0330913C032817390771F48E
:100300009091390380913A03981741F0E0913903B5
:10031000F0E0E253FD4F808190E008958FEF9FEF72
:10032000089508951F93CF93DF93DC015C962D9180
:100330003C915D972115310539F481E090E01396E9
:100340009C938E9312973DC05196ED91FC915297DC
:1003500050969C915097892F80951FB75E964C912F
:100360005E9741FB772770F941FD6095F8944081D5
:10037000772311F0492B01C048234083E9012197DD
:10038000F1F748E0508160FF02C0592B01C05823AB
:100390005083E9012197F1F76695415099F777234A
:1003A00021F090818923808303C08081982B9083E2
:1003B0001FBF5C968D919C915D970197F1F721E0AD
:1003C00030E0C901DF91CF911F91089520913B0347
:1003D00030913C032817390771F480913A0320913A
:1003E000390390E0805C9F4F821B910960E470E0CC
:1003F0000E94AD19089580E090E0089520913B039C
:1004000030913C0328173907B9F490913903809152
:100410003A03981789F0E0913903F0E0E253FD4F79
:1004200080812091390330E02F5F3F4F2F733327B6
:100430002093390390E008958FEF9FEF089585EDA5
:100440008093BC008091BC0084FDFCCF1092E2033D
:1004500008954091A902262F30E0240F311D21324A
:100460003105DCF42091E2032430C9F4FC0180E082
:1004700090E0861758F43091A9022191DC01A95728
:10048000BD4FA30FB11D2C930196F3CF8091A9020C
:10049000680F6093A90280E0089581E0089582E0EA
:1004A00008950895E0919B0380919A03E81730F432
:1004B000F0E0E456FC4F808190E008958FEF9FEFCD
:1004C000089590919B0380919A03981750F4E92F17
:1004D000F0E0E456FC4F208130E09F5F90939B0357
:1004E00002C02FEF3FEFC901089580919A0390E079
:1004F00020919B03821B91090895CF92DF92EF9286
:10050000FF920F931F93CF93DF937C01262F972F9A
:100510008A018091E303882391F0C62FD72F6E01C3
:10052000C40ED51ECC15DD0571F06991D701ED9192
:10053000FC910190F081E02DC7010995F3CF642F64
:10054000822F0E942902C801DF91CF911F910F9144
:10055000FF90EF90DF90CF900895CF93DF931F929D
:10056000CDB7DEB769832091E3032223D1F0209138
:100570000504203240F021E030E0FC013383228387
:1005800080E090E015C08091E403E82FF0E0EB51AB
:10059000FC4F998190838F5F8093E40380930504DF
:1005A00005C061E0CE0101960E94290281E090E041
:1005B0000F90DF91CF910895CF93DF931F92CDB726
:1005C000DEB7FC018485958597FD05C02FEF3FEFD1
:1005D000358724870BC0CE0101960E946F0B0197CF
:1005E00019F4898190E002C08FEF9FEF0F90DF91A7
:1005F000CF9108950F931F93CF93DF931F92CDB7A1
:10060000DEB78C01FC018485958597FF0EC0CE0175
:1006100001960E946F0B019719F4298130E002C006
:100620002FEF3FEFF80135872487F8018485958502
:100630000F90DF91CF911F910F9108950E94551B4C
:10064000362F90E0FC01E653FF4F4491FC01EE5C35
:10065000FE4F2491FC01ED5EFE4F8491882309F446
:1006600051C04423E1F150E0FA013197EF30F10538
:10067000B0F5EA5AFF4F0C94C119909180009F7712
:1006800007C0909180009F7D03C090918000977F6C
:100690009093800024C094B59F7702C094B59F7D4D
:1006A00094BD1DC0909190009F7707C090919000DD
:1006B0009F7D03C090919000977F909390000FC012
:1006C0009091C0009F7703C09091C0009F7D909350
:1006D000C00005C09091C200977F9093C200E82FA0
:1006E000F0E0EE0FFF1FE950FF4FA591B4918FB7D7
:1006F000F894EC91311103C020952E2301C02E2BCC
:100700002C938FBF0895CF93DF9390E0FC01EE5CB4
:10071000FE4F2491FC01ED5EFE4F8491882361F130
:1007200090E0880F991FFC01E751FF4FC591D491CC
:10073000FC01E950FF4FA591B491611109C09FB729
:10074000F8948881209582238883EC912E230BC016
:10075000623061F49FB7F8943881822F80958323AB
:100760008883EC912E2B2C939FBF06C08FB7F894F3
:10077000E8812E2B28838FBFDF91CF9108958F9230
:100780009F92AF92BF92CF92DF92EF92FF926B0156
:100790007C010E9453014B015C01C114D104E104AE
:1007A000F104F1F00E945301DC01CB018819990991
:1007B000AA09BB09883E9340A105B10570F321E069
:1007C000C21AD108E108F10888EE880E83E0981E6D
:1007D000A11CB11CC114D104E104F10419F7DDCF4F
:1007E000FF90EF90DF90CF90BF90AF909F908F9051
:1007F00008958F929F92AF92BF92CF92DF92EF9225
:10080000FF920F931F93CF93DF935C016B018A01DB
:1008100080911501882309F45EC080919903882393
:1008200009F459C08091390680FF05C08091E0002D
:1008300082608093E000E8018AEFF82E93E0E92ED1
:100840002FE3822E3AE3932E209709F43DC08FB711
:10085000F894E092E9009091E80095FF06C090912D
:10086000F200282D291B922F01C090E08FBF91111B
:100870000AC0FA94FF2079F161E070E080E090E036
:100880000E94BF03E1CF292F30E0C217D3070CF439
:100890009C2F8FB7F894E092E9002091E80025FFA3
:1008A00011C0292F30E0C21BD30BF601915020F06C
:1008B00041914093F100FACFC20ED31E9091E8000F
:1008C00095FF13C08FBFC0CF5D9884E680933A0632
:1008D0001016110644F081E090E0F50193838283C5
:1008E00080E090E005C0C80103C09092E800EACF24
:1008F000DF91CF911F910F91FF90EF90DF90CF90FC
:10090000BF90AF909F908F9008951F920F920FB657
:100910000F9211242F933F938F939F93AF93BF9385
:1009200080913D0390913E03A0913F03B09140031D
:100930003091340323E0230F2D3720F40196A11DBD
:10094000B11D05C026E8230F0296A11DB11D2093FD
:10095000340380933D0390933E03A0933F03B093F1
:1009600040038091350390913603A0913703B091F5
:1009700038030196A11DB11D809335039093360372
:10098000A0933703B0933803BF91AF919F918F919C
:100990003F912F910F900FBE0F901F9018951F92AF
:1009A0000F920FB60F9211242F933F934F935F93A3
:1009B0006F937F938F939F93AF93BF93EF93FF9327
:1009C000E0910801F09109010995FF91EF91BF9124
:1009D000AF919F918F917F916F915F914F913F91D7
:1009E0002F910F900FBE0F901F9018951F920F928E
:1009F0000FB60F9211242F933F934F935F936F93F2
:100A00007F938F939F93AF93BF93EF93FF93E09167
:100A10000601F09107010995FF91EF91BF91AF9108
:100A20009F918F917F916F915F914F913F912F9106
:100A30000F900FBE0F901F9018951F920F920FB638
:100A40000F9211242F933F934F935F936F937F9354
:100A50008F939F93AF93BF93EF93FF93E091040124
:100A6000F09105010995FF91EF91BF91AF919F9191
:100A70008F917F916F915F914F913F912F910F9047
:100A80000FBE0F901F9018951F920F920FB60F92E6
:100A900011242F933F934F935F936F937F938F9383
:100AA0009F93AF93BF93EF93FF93E0910201F09177
:100AB00003010995FF91EF91BF91AF919F918F91A4
:100AC0007F916F915F914F913F912F910F900FBE4A
:100AD0000F901F9018951F920F920FB60F9211242E
:100AE0002F933F934F935F936F937F938F939F9336
:100AF000AF93BF93EF93FF93E0910001F091010159
:100B00000995FF91EF91BF91AF919F918F917F9147
:100B10006F915F914F913F912F910F900FBE0F906A
:100B20001F901895CF92DF92EF92FF92CF93DF93B1
:100B3000EC01603282E078070CF03DC077FD06C022
:100B4000653B71052CF064EB70E002C060E070E082
:100B5000898128E830E06901C81AD10887FDD3945B
:100B6000CC0CDD1CCC0CDD1C0D2C000CEE08FF08A1
:100B70008A8128E532E0281B310987FD3395220F51
:100B8000331F220F331FC901330FAA0BBB0B9C016C
:100B9000AD012C193D094E095F09DB010E94CA1CF9
:100BA00024EB30E040E050E00E94A01CC20ED31EB7
:100BB000E41EF51EB60188818C3080F5998148E8E5
:100BC00050E0491B510997FD5395440F551F440FA1
:100BD000551F6417750784F09A8128E532E0291BB8
:100BE000310997FD3395220F331F220F331FAB01BD
:100BF000261737070CF4A90142505109440F551F1D
:100C00002FB7F89490E0FC01EE0FFF1F8E0F9F1F8F
:100C1000FC01E05FFC4F528341832FBFDF91CF91F6
:100C2000FF90EF90DF90CF9008951F93CF93DF93C5
:100C3000EC01162F88818C3008F04EC061E0812FC6
:100C40000E9483038881E82FF0E09F01220F331F69
:100C5000E20FF31FE05FFC4F1F739081907C192B14
:100C6000108319821A826CE00E94A1199CE0899F6E
:100C7000B001112440E050E09A01260F371FF9011E
:100C8000EE0FFF1F2E0F3F1FF901E05FFC4F908119
:100C900096FD16C04F5F5F4F4C30510569F78111CB
:100CA0000FC01092800082E0809381001092850036
:100CB00010928400B19A80916F00826080936F00DF
:100CC000E881F0E0CF01880F991FE80FF91FE05F7E
:100CD000FC4F8081806480838881DF91CF911F9158
:100CE000089560E070E083EA95E00E9492056AE56D
:100CF00070E089EA95E00E9492056AE570E086EA74
:100D000095E00E9492056AE570E083EA95E00E9412
:100D100092056BE170E083EA95E00E941506E1CF51
:100D2000FC0190910F039C30A0F481E0890F809327
:100D30000F039083892F90E0FC01EE0FFF1F8E0FB1
:100D40009F1FFC01E05FFC4F88EB9BE09283818357
:100D500008958FEF808308951F920F920FB60F9220
:100D600011242F933F934F935F936F937F938F93B0
:100D70009F93AF93BF93EF93FF9380910E0387FFF1
:100D800005C010928500109284001BC020910E03B4
:100D9000022E000C330B80910F0390E028173907C7
:100DA00084F480910E03082E000C990BFC01EE0FC9
:100DB000FF1F8E0F9F1FFC01E05FFC4F808186FDAF
:100DC00015C080910E038F5F80930E0320910E0358
:100DD000022E000C330B80910F0390E02817390787
:100DE000C4F480910E038C3064F113C080910E0323
:100DF000082E000C990BFC01EE0FFF1F8E0F9F1F9A
:100E0000FC01E05FFC4F808160E08F730E94200353
:100E1000D8CF8091840090918500049680349C49BD
:100E200018F480E49CE905C08091840090918500CD
:100E3000049690938900809388008FEF80930E032F
:100E40003BC0209184003091850080910E03082ED4
:100E5000000C990BFC01EE0FFF1F8E0F9F1FFC0172
:100E6000E05FFC4F81819281820F931F90938900F4
:100E70008093880080910E03082E000C990BFC01D2
:100E8000EE0FFF1F8E0F9F1FFC01E05FFC4F808164
:100E900086FF12C080910E03082E000C990BFC01F6
:100EA000EE0FFF1F8E0F9F1FFC01E05FFC4F808144
:100EB00061E08F730E942003FF91EF91BF91AF918A
:100EC0009F918F917F916F915F914F913F912F9162
:100ED0000F900FBE0F901F9018951F920F920FB694
:100EE0000F9211242F933F934F935F936F937F93B0
:100EF0008F939F93AF93BF93EF93FF93E0913B0347
:100F0000F0913C03309709F451C0968DA685B785C2
:100F1000858591FF04C09C91892329F447C09C9149
:100F2000892309F043C0A389B4899C918589809560
:100F300089238C93868997890197F1F7608D718D4C
:100F4000A685B785558538E020E0CB010197F1F7FC
:100F5000822F90E095958795282F4C91452309F095
:100F60002068315091F7868D81FD209580913A035C
:100F700090E001968F73992730913903381749F023
:100F8000A0913A03B0E0A253BD4F2C9380933A0353
:100F900003C0868D8160868F828D938D0197F1F7D6
:100FA000A389B4899C918589892B8C93FF91EF91BA
:100FB000BF91AF919F918F917F916F915F914F9171
:100FC0003F912F910F900FBE0F901F901895E091B9
:100FD0003B03F0913C03E817F90769F4A389B4894E
:100FE0009C918589809589238C9310923C03109263
:100FF0003B0381E0089580E008958EBD00000DB4AC
:1010000007FEFDCF8EB508951F920F920FB60F9277
:1010100011242F933F934F935F936F937F938F93FD
:101020009F93AF93BF93EF93FF938091B900887F15
:10103000803609F49CC068F5883209F45BC090F4EE
:10104000803109F454C038F4882309F4F6C088309C
:1010500009F44DC0F6C0883109F44CC0803209F45F
:101060005DC0EFC0803409F468C048F4803309F4EF
:1010700055C0883309F0E5C08093E003D8C08035BF
:1010800009F44FC0883509F45DC0883409F0D9C02F
:10109000D6C0883909F4C7C0A8F4883709F467C0F6
:1010A00038F4883609F463C0803709F460C0C9C0D9
:1010B000883809F4B8C0803909F45FC0803809F075
:1010C000C0C05BC0803B09F486C038F4803A09F4A4
:1010D00066C0883A09F47FC0B4C0803C09F4A7C058
:1010E000883C09F4A4C0883B09F48AC0AAC0809156
:1010F000BD0310C09091DF038091DE03981770F557
:10110000E091DF0381E08E0F8093DF03F0E0E25493
:10111000FC4F80818093BB0085EC86C08093E00308
:101120008EC0E091DF0381E08E0F8093DF0380911A
:10113000BB00F0E0E254FC4F80839091DF0380918C
:10114000DE036EC0E091DF0381E08E0F8093DF034A
:101150008091BB00F0E0E254FC4F80838091E1037A
:1011600081116DC081E08093BC0384EA61C083E09B
:101170008093E2031092CD02CFCF8091CD028032D6
:1011800008F051C0E091CD0281E08E0F8093CD0236
:101190008091BB00F0E0E355FD4F8083BDCF85EC2F
:1011A0008093BC001092E2038091CD02803230F433
:1011B000E091CD02F0E0E355FD4F10826091CD0249
:1011C00070E0E091AB02F091AC028DEA92E00995FB
:1011D0001092CD0236C084E08093E2031092AA02FE
:1011E0001092A902E091A702F091A80209958091BE
:1011F000A902811105C081E08093A90210928702A3
:10120000E091AA0281E08E0F8093AA02F0E0E957F4
:10121000FD4F80818093BB009091AA028091A9022A
:10122000981708F479CF85E88093BC000AC085EC54
:101230008093BC001092E20304C01092E0030E946D
:101240001F02FF91EF91BF91AF919F918F917F917D
:101250006F915F914F913F912F910F900FBE0F9023
:101260001F9018958F929F92AF92BF92CF92DF926C
:10127000EF92FF92CF93DF93EC0188809980AA8050
:10128000BB80A5019401C501B4010E94C01B9B0154
:10129000AC010E94DC190E94FB1A6B017C0168877B
:1012A00079878A879B879B01AC01C501B4010E94A5
:1012B000481A6C877D878E879F87A70196016C816E
:1012C0007D818E819F810E94481A688B798B8A8BE1
:1012D0009B8BDF91CF91FF90EF90DF90CF90BF90ED
:1012E000AF909F908F900895382F20910504909192
:1012F0003606213208F049C08091E2038111FCCF0B
:1013000042E04093E2033093E1033FEF3093E00388
:101310001092DF032093DE03A5EEB3E04EEB53E023
:10132000FA013E2F341B321718F43D913193F9CF57
:101330001092BD032091BD03990F922B9093BD0392
:101340009091BC03913061F41092BC039091BD0365
:101350009093BB009091BC0093FDF8CF95EC01C039
:1013600095EE9093BC009091E2039230E1F390915E
:10137000E0039F3F79F08091E003803241F080915B
:10138000E003803331F084E005C081E003C082E0F7
:1013900001C083E01092E403109205041092E3036D
:1013A00008959091E2039111FCCF91E09093E203B4
:1013B0009093E1032FEF2093E0031092DF03260FB9
:1013C0002093DE039093BD039091BD03880F892B7A
:1013D0008093BD038091BC03813061F41092BC0303
:1013E0008091BD038093BB008091BC0083FDF8CF4A
:1013F00085EC01C085EE8093BC008091E2038130D2
:10140000E1F38091DF03861710F46091DF03AEEB08
:10141000B3E02CE933E0F9018E2F821B861718F414
:101420008D918193F9CF862F0895CF93DF931F92EB
:10143000CDB7DEB791E09093E30380933606109228
:10144000E4031092050486E594E049830E94AD020E
:101450004981642F86E594E00E94AD0281E00F90FF
:10146000DF91CF910C947409CF93DF93BC0186E098
:1014700094E00E94580FEC0161E771E086E094E08F
:101480000E94580F8C0F9D1FDF91CF9108951F93DD
:10149000CF93DF93462F9091AC05913041F4682FA4
:1014A00080911B06DF91CF911F910C94150A911129
:1014B00016C0C62FD82F10911B0660E0812F0E9406
:1014C00020038D2F8F730E94FD078C2F0E94FD0734
:1014D00061E0812FDF91CF911F910C942003DF9168
:1014E000CF911F9108951F93CF93DF93462F909133
:1014F000AC05913041F4682F80911C06DF91CF91AB
:101500001F910C94150A911116C0C62FD82F109157
:101510001C0660E0812F0E9420038D2F8F730E9494
:10152000FD078C2F0E94FD0761E0812FDF91CF9195
:101530001F910C942003DF91CF911F910895CF92BA
:10154000DF92EF92FF920F931F93CF93DF93D82FE9
:101550007A01C22F6F73162F106880911B06D81363
:1015600004C0223010F0162F106C60E08D2F0E9406
:101570002003812F0E94FD078701CC2ED12CC801AA
:101580008E199F098C159D053CF480E00E94FD0793
:10159000F80181938F01F3CF61E08D2F0E9420032A
:1015A0008C2FDF91CF911F910F91FF90EF90DF90E3
:1015B000CF900895CF93C82F81E08093E303C09329
:1015C00036061092E4031092050486E594E00E942A
:1015D000AD0280E00E94740961E08C2F0E94D10965
:1015E00010929B0380939A0386E594E00E94610227
:1015F000CF910895CF93DF931F92CDB7DEB7682FB9
:101600008091AC05813029F480911C060E94DA0A91
:101610000CC081110AC021E0AE014F5F5F4F809185
:101620001C060E949F0A898100C00F90DF91CF9114
:101630000895EF92FF920F931F93CF93DF93AB0127
:101640009091AC05913099F5D52FF62E682FC09169
:101650001C069093E303C09336061092E4031092A5
:101660000504606886E594E00E94AD0280E00E9477
:10167000740981112BC066E08C2F0E94D109C82FFC
:1016800010929B0380939A03863001F50F2D1D2F36
:10169000780186E0E80EF11C86E594E00E94610284
:1016A000F80181938F01EE15FF05B1F710C091117C
:1016B0000CC026E0682F80911C06DF91CF911F910E
:1016C0000F91FF90EF900C949F0A02C0C0E08C2F06
:1016D000DF91CF911F910F91FF90EF900895FC0142
:1016E00080919903811103C08FEF9FEF08959FB7F9
:1016F000F89482E08093E9002091F20030E0121625
:10170000130614F421E030E02115310559F0289832
:1017100084E6809398038091F10080838091F200A9
:10172000882319F09FBFC90108958BE68093E800D4
:10173000F9CF80912E0681110DC082E080932A0698
:1017400084E080932B0610922D0610922C0681E0E7
:1017500080932E068AE296E0089540913E065091CD
:101760003F0620913C0630913D0642175307B4F4E2
:101770009091E8009570E1F39091E80092FD19C016
:101780008093F10080913E0690913F0601968F7301
:101790009927892B19F48EEF8093E80080913E06FB
:1017A00090913F06019690933F0680933E0681E01C
:1017B000089580E00895CF92DF92EF92FF920F9309
:1017C0001F93CF93DF931F92CDB7DEB7182F062F4D
:1017D000E42E862F880F8E5F99830E94AD0B83E0E5
:1017E0000E94AD0BF12EC12E9981D92E8C2D8F190F
:1017F000801798F4F601E7FE02C0849101C0808151
:101800000E94AD0B182F80E00E94AD0B8123FFEFEB
:10181000CF1ADF0A8111EACF01C081E00F90DF917A
:10182000CF911F910F91FF90EF90DF90CF9008958F
:10183000DF92EF92FF920F931F93CF93DF93D82EF7
:101840008A017B01E40EF51EEB01CE15DF0571F078
:10185000D7FE03C0FE01849101C088810E94AD0BB8
:1018600021968111F2CF8FEF9FEF01C0C801DF9168
:10187000CF911F910F91FF90EF90DF9008956150ED
:1018800030F02091F100FC0120830196F8CF2898D8
:1018900084E6809398030895CF92DF92EF92FF92AF
:1018A0000F931F93CF93DF936C017A018B01C0E0FC
:1018B000D0E0CE15DF0589F0D8016D918D01D601FC
:1018C000ED91FC910190F081E02DC6010995892BE5
:1018D00011F47E0102C02196ECCFC701DF91CF91B8
:1018E0001F910F91FF90EF90DF90CF9008950F938D
:1018F0001F93CF93DF931F92CDB7DEB782E089832A
:1019000042E450E061E571E080E80E94180C0E941A
:10191000990BDC0112960D911C911397011511057D
:1019200069F0D801ED91FC910280F381E02DBE01B8
:101930006F5F7F4FC801099597FF07C089810F909E
:10194000DF91CF911F910F910895F80100851185C6
:10195000E5CF1F920F920FB60F9211248F939F9392
:101960008091E1009091E100937F9093E10083FFEB
:101970000FC01092E90091E09093EB001092EC0000
:1019800092E39093ED001092990398E09093F00009
:1019900082FF20C093E09093E9009091F200992398
:1019A00019F09AE39093E80090913A06992339F060
:1019B00090913A06915090933A06992389F190912B
:1019C0009803992339F0909198039150909398033C
:1019D000992341F184FF10C08091E2008E7E8160E6
:1019E0008093E2008091E1008F7E8093E1008091FE
:1019F00039068E7E806111C080FF16C08091E200A2
:101A00008E7E80618093E2008091E1008E7E8093E3
:101A1000E100809139068E7E81608093390604C092
:101A20005D9ACDCF289AD6CF9F918F910F900FBE00
:101A30000F901F9018951F920F920FB60F921124BE
:101A4000CF92DF92EF92FF920F931F932F933F93CA
:101A50004F935F936F937F938F939F93AF93BF93B6
:101A6000EF93FF93CF93DF93CDB7DEB76C97DEBFD5
:101A7000CDBF1092E9008091E80083FFFAC168E0D1
:101A8000CE0145960E943F0C82EF8093E8008D893D
:101A900087FF05C09091E80090FFFCCF03C09EEF48
:101AA0009093E800982F907609F0C6C09E892F8900
:101AB000188D91110CC0803829F4809138068093DC
:101AC000F10002C01092F1001092F10047C1422FC4
:101AD00050E0512B913051F4811140C141305105FA
:101AE00009F03CC1809138068D7F0BC0933061F4C2
:101AF000811134C14130510509F030C1809138065F
:101B00008260809338062AC1953041F48091E800C4
:101B100080FFFCCF20682093E30020C1963009F0BD
:101B20005FC0EB8CFC8C1092E90010923F06109283
:101B30003E06123091F510923D0610923C060E942E
:101B4000770C99E0BE016F5F7F4FDB01E92F1D929B
:101B5000EA95E9F799831A8391E09E8390EA988742
:101B60009AEF998720913E0630913F06275F3F4FBD
:101B70003C832B838D831092E90010923F061092D4
:101B80003E06F0923D06E0923C0649E050E080E0DF
:101B90000E94180C0E94770CE1C0F0923D06E09282
:101BA0003C060E94990BDC011296ED90FC90139775
:101BB000E114F10409F4C0C0D701ED91FC91048057
:101BC000F581E02DBE016B5E7F4FC701099500973F
:101BD00019F00CF0C3C0C6C0F701E084F184E8CF6F
:101BE000973009F4BFC0983021F481E08093F10070
:101BF000B5C0993009F0B2C0837009F0B3C0ECE50C
:101C0000F1E081E021E036E39081992361F0809357
:101C1000E9002093EB0091919093EC003093ED005C
:101C20008F5F873089F78EE78093EA001092EA0091
:101C30008F898093990392C08B8D9C8D1092E900BF
:101C400010923F0610923E0690933D0680933C060C
:101C5000898D811156C08E899D89913A59F48132BE
:101C600009F080C047E050E06EE071E080E00E9443
:101C7000180C74C0913209F075C0833289F4888DD4
:101C800090E0982F88272F89822BA0E0B0E08093E6
:101C90000A0190930B01A0930C01B0930D015EC05B
:101CA000803269F48091E80082FFFCCF67E08EE02B
:101CB00091E00E943F0C8BEF8093E80006C08232D7
:101CC00009F04CC08F8980931501809137068823D5
:101CD00019F0EEEFFAE002C0E0E0F8E080910E01CA
:101CE00090910F01A0911001B0911101803B94409F
:101CF000A105B10509F088C08091150180FFA0C041
:101D000083C00E94990BDC0112960D911C911397D0
:101D10000115110539F1D801ED91FC910190F08187
:101D2000E02DBE016B5E7F4FC8010995811116C081
:101D3000F80100851185ECCF1130C1F0133091F41A
:101D40008F89882309F455C08230E9F440E860E1C6
:101D500083EA91E00E94DB0B882321F08EEF8093D1
:101D6000E80087C081E28093EB0083C08B8D9C8D5F
:101D7000089711F410933B0680913B06811136C001
:101D800064EB71E038C0813029F440E86BE087E90A
:101D900091E0E0CF833031F70E94990BDC0112967D
:101DA000ED90FC9013978E010F5F1F4F6801E114B7
:101DB000F10479F0D701ED91FC910680F781E02DD7
:101DC000B801C7010995080F111DF701E084F184DE
:101DD000EECFD8011C92F60101900020E9F731976F
:101DE000BF016C197D0940E0C601B4CF66EC71E01B
:101DF00002C063E971E06115710509F4B3CFFB011D
:101E0000449150E080E833CF0FB6F894A8958091C4
:101E10006000886180936000109260000FBEA895FA
:101E2000EE3F2AE0F20739F08091FE0A9091FF0A16
:101E30009183808393CF1092FF0A1092FE0A8ECF77
:101E4000EE3F8AE0F80731F0808191819093FF0A9C
:101E50008093FE0A87E797E7918380839BE088E180
:101E60000FB6F894A895809360000FBE9093600021
:101E700075CF6C960FB6F894DEBF0FBECDBFDF9165
:101E8000CF91FF91EF91BF91AF919F918F917F91F2
:101E90006F915F914F913F912F911F910F91FF9003
:101EA000EF90DF90CF900F900FBE0F901F9018957E
:101EB0006115710579F0FB0101900020E9F7319778
:101EC000AF01461B570BDC01ED91FC910280F381C1
:101ED000E02D099480E090E008954F925F926F9218
:101EE0007F92EF92FF920F931F93CF93DF93CDB723
:101EF000DEB7A1970FB6F894DEBF0FBECDBF7C0151
:101F0000FA01CB0119A2223008F42AE08E010F5DFC
:101F10001F4F422E512C612C712CBF01A301920145
:101F20000E947E1CF901CA01015011096A3014F4A3
:101F3000605D01C0695CD8016C93232B242B252B99
:101F400061F7B801C7010E94580FA1960FB6F89427
:101F5000DEBF0FBECDBFDF91CF911F910F91FF90DC
:101F6000EF907F906F905F904F90089587E491E09D
:101F70009093D6048093D50485ED94E00C94E70704
:101F8000CF93DF9300D000D000D0CDB7DEB77894E8
:101F900084B5826084BD84B5816084BD85B582606E
:101FA00085BD85B5816085BD80916E00816080931F
:101FB0006E00109281008091810082608093810088
:101FC0008091810081608093810080918000816098
:101FD0008093800080919100826080939100809135
:101FE0009100816080939100809190008160809346
:101FF00090008091C10084608093C1008091C100F5
:1020000082608093C1008091C10081608093C10093
:102010008091C30081608093C3008091C000826082
:102020008093C0008091C20081608093C200809143
:102030007A00846080937A0080917A008260809335
:102040007A0080917A00816080937A0080917A0092
:10205000806880937A00109299031092380610924B
:1020600039068091D70081608093D70080EA809301
:10207000D80089B5806189BD89B5826089BD09B400
:1020800000FEFDCF61E070E080E090E00E94BF03C1
:102090008091D8008F7C80618093D8008091E0008F
:1020A000807F8093E0008091E1008E7E8093E1004C
:1020B0008DE08093E200559A209AEEEFFFE785913C
:1020C00094918B3F9C4D19F481E0809337061092D8
:1020D0009403109295031092960310929703109216
:1020E000620310926303109264031092650360ED23
:1020F00077E080E090E00E94BF0386E094E0909358
:10210000930380939203FBE1EF2EF12CD090150105
:102110006AE070E080E090E00E94BF03D1100BC045
:1021200041E0E41AF10839F064E670E080E090E004
:102130000E94BF03EBCFE0919203F09193038FEFE6
:102140009FEF958784872FB7F89480913D039091F6
:102150003E03A0913F03B09140032FBF4091620323
:10216000509163036091640370916503841B950B28
:10217000A60BB70B8197A105B10538F463E070E0B9
:1021800080E090E00E94BF03DECF2FB7F8948091EB
:102190003D0390913E03A0913F03B09140032FBFB8
:1021A0008093620390936303A0936403B0936503E9
:1021B00062E671E080919203909193030E94580F20
:1021C0006AE070E080E090E00E94BF0381E08093CD
:1021D00066038FEF9FEF9093130480931204109285
:1021E000F0041092EF041092EE041092ED0410929D
:1021F000EC041092EB0482E490E09093F20480935C
:10220000F1049091E10488EF890F843048F022EFC7
:10221000290F243028F026EE290F233008F060C063
:102220002FE030E03093EC042093EB0420E430E026
:102230003093EE042093ED0427E230E03093F00475
:102240002093EF04843058F082EF890F843038F007
:102250009A51933008F47FC6A0E0B0E07EC6A8E6AD
:10226000B0E0E8E6F0E0808181608C939091E10439
:1022700088EF890F843058F022EF290F243038F08E
:1022800026EE290F233018F020E030E002C02BE6C4
:1022900030E03093E9042093E804843010F42CEF0C
:1022A00009C09E3071F09F3071F0903171F0913122
:1022B00071F02AEE290F91E001C0990F2A95EAF7F3
:1022C00007C098E005C092E003C094E001C091E02F
:1022D0009093EA048091F1049091F2040197F1F750
:1022E0008091EF049091F004892B21F180913B03C0
:1022F00090913C0324E0853D9207E1F0009711F0B6
:102300000E94E7078091F3048E7F8093F30410927C
:102310003A031092390385ED94E090933C03809347
:102320003B03E091E804F091E90490818091EA0494
:10233000892B808381E796E09093070180930601C3
:10234000809169008F73806480936900EB9A61E0EB
:1023500081E00E94830360E082E00E94830365E0E5
:1023600070E089EA95E00E94150666E070E086EA72
:1023700095E00E94150664E070E083EA95E00E9413
:10238000150668E070E080EA95E00E9415066AE5AF
:1023900070E089EA95E00E9492056AE570E086EABD
:1023A00095E00E94920581E08093AC058EE18093D8
:1023B000AE059BE69093AD0590931C0680931B069B
:1023C0008091B0059091B105853F910569F0843FFA
:1023D00041E0940749F0803D974031F085EF90E06F
:1023E0009093B1058093B0058091C005823049F08B
:1023F000843039F0883029F0803119F082E0809300
:10240000C0058091C905982F977F943039F08830A6
:1024100029F0803119F084E08093C9058091B005DE
:102420009091B105843F41E0940761F0803D27E041
:10243000920769F0853F9105B1F489E29CE5AFE030
:10244000BCE309C089E29CE5AFE8BCE304C089E2D3
:102450009CE5AFE8BDE380931D0690931E06A09314
:102460001F06B09320068091C905883089F038F4A2
:102470008430F9F487EF9CECA2E1B9E312C08C3010
:1024800061F08031B1F484E29BE0A8E1BAE309C0D5
:1024900084E29BE0A8E9B9E304C08FE991E7A1EEEB
:1024A000B9E38093250690932606A0932706B09360
:1024B00028068091C005843089F038F48230F9F420
:1024C00080E49AEDAFE7B8E312C0883061F0803164
:1024D000B1F480EB93EEAFE3BAE309C080E49AED88
:1024E000AFEFB8E304C080E49AEDAFE7B9E38093BF
:1024F000210690932206A0932306B09324061092FF
:102500009B0310929A031092E40310920504109218
:10251000E20381E08093E1031092BC0361E082E07A
:102520000E94200361E083E00E9420038091B900B3
:102530008E7F8093B9008091B9008D7F8093B90020
:1025400088E48093B80085E48093BC008091AC055A
:10255000813039F46FE080911B060E94DA0A182F4F
:102560000CC081110AC021E0AE014F5F5F4F6FE0E8
:1025700080911B060E949F0A19818FE00E94FA0A2F
:10258000212F30E0382B2D33384609F0D7C4809105
:10259000AF05882331F08091B2058295880F807E47
:1025A00001C080E02091B0053091B105243F91E059
:1025B000390729F0203D374019F4886101C088604F
:1025C0006091B3056370682B80E10E94730A60E03C
:1025D00081E10E94730A8091B405811102C060E01C
:1025E00001C060E88091B505882329F08091B60587
:1025F0008F708064682B82E10E94730A8091BD0510
:10260000882311F060E201C060E08091BC05811177
:1026100060618091BB05811168608091BE05811168
:1026200062608EE10E94730A8091B705882311F0E1
:1026300060E201C060E08091B80581116061809125
:10264000B9058111686083E10E94730A8091C40515
:10265000882311F060E201C060E08091C305811120
:1026600060618091C205811168608FE10E94730AE8
:102670008091BF05882331F06091C1056295660F96
:10268000607E01C060E08091C005883031F080310B
:1026900031F0843029F4606103C0686101C0686072
:1026A0008091C50587FD03C064608370682B80E25C
:1026B0000E94730A8091C605882349F06091C7057E
:1026C000637080E2689FB0011124606801C060E01F
:1026D00081E20E94730A8091CB05882311F060E8A3
:1026E00001C060E02091CA05277094E0299F900105
:1026F00011249091CC05937040E2949FC001112465
:10270000822B682B80E20E94470AE091C905E850BD
:10271000E93028F4F0E0E65EFE4F608101C060E041
:1027200081E20E94470A8091CE05882311F080E261
:1027300001C080E06091CF056370682B82E20E9447
:10274000470A6091CD056370660F660F83E20E94B1
:10275000470A60E084E20E94470A84E791E00E9411
:10276000340A80E090E0A0E0B7EB809330059093CE
:102770003105A0933205B093330540E050E060E8A6
:1027800076EB40933405509335056093360570938E
:10279000370540E050E060E078E340931C0550933B
:1027A0001D0560931E0570931F05C12CD12C10EEE2
:1027B000E12E17E3F12EC0922005D0922105E09280
:1027C0002205F0922305C12CD12CE12C28EBF22E0E
:1027D000C0925805D0925905E0925A05F0925B05D7
:1027E000812C912C30EEA32E37EBB32E80925C051A
:1027F00090925D05A0925E05B0925F0580934405BE
:1028000090934505A0934605B093470580934805EE
:1028100090934905A0934A05B0934B0580E090E062
:10282000A0E0B7E38093800590938105A093820593
:10283000B09383058093840590938505A0938605C6
:10284000B0938705C0926C05D0926D05E0926E053D
:10285000F0926F05C12CD12CE0ECEE2EE7EBFE2EB2
:10286000C0927005D0927105E0927205F0927305E6
:10287000409308055093090560930A0570930B0572
:1028800040E050E060EC77E340930C0550930D0579
:1028900060930E0570930F058093F4049093F504F4
:1028A000A093F604B093F70480E090E0A0E8B6E3CC
:1028B0008093F8049093F904A093FA04B093FB0476
:1028C00020E030E040EA51E460913C0570913D0524
:1028D00080913E0590913F050E94C01B6B017C01D9
:1028E00020E030E040EA51E460912805709129052C
:1028F00080912A0590912B050E94C01B9B01AC0181
:10290000C701B6010E94DC1925E834E94BEE52E418
:102910000E94DB196093590370935A0380935B0301
:1029200090935C0320E030E040EA51E46091400580
:102930007091410580914205909143050E94C01B12
:102940006B017C0120E030E040EA51E460912C050D
:1029500070912D0580912E0590912F050E94C01B2E
:102960009B01AC01C701B6010E94DC1920E33DE7E1
:1029700047E052E40E94DC1960935D0370935E03AC
:1029800080935F039093600320E030E040EA51E4DD
:102990006091640570916505809166059091670569
:1029A0000E94C01B6B017C0120E030E040EA51E452
:1029B0006091500570915105809152059091530599
:1029C0000E94C01B9B01AC01C701B6010E94DC192B
:1029D00021E834E94BEE52E40E94DB196093510385
:1029E00070935203809353039093540320E030E09C
:1029F00040EA51E4609168057091690580916A052B
:102A000090916B050E94C01B6B017C0120E030E0BF
:102A100040EA51E460915405709155058091560546
:102A2000909157050E94C01B9B01AC01C701B601E4
:102A30000E94DC1927E33DE747E052E40E94DC19DD
:102A400060935503709356038093570390935803F4
:102A500020E030E040EA51E460918C0570918D05F2
:102A600080918E0590918F050E94C01B6B017C01A7
:102A700020E030E040EA51E46091780570917905FA
:102A800080917A0590917B050E94C01B9B01AC014F
:102A9000C701B6010E94DC1922E834E94BEE52E48A
:102AA0000E94DB196093490370934A0380934B03A0
:102AB00090934C0320E030E040EA51E460919005AF
:102AC0007091910580919205909193050E94C01B91
:102AD0006B017C0120E030E040EA51E460917C052C
:102AE00070917D0580917E0590917F050E94C01BAD
:102AF0009B01AC01C701B6010E94DC1925E33DE74B
:102B000047E052E40E94DC1960934D0370934E033A
:102B100080934F039093500320E030E040EA51E46B
:102B20006091140570911505809116059091170517
:102B30000E94C01B6B017C0120E030E040EA51E4C0
:102B40006091000570910105809102059091030547
:102B50000E94C01B9B01AC01C701B6010E94DC1999
:102B600026E834E94BEE52E40E94DB1960934103FE
:102B700070934203809343039093440320E030E03A
:102B800040EA51E4609118057091190580911A0589
:102B900090911B050E94C01B6B017C0120E030E07E
:102BA00040EA51E4609104057091050580910605A5
:102BB000909107050E94C01B9B01AC01C701B601A3
:102BC0000E94DC192FE23DE747E052E40E94DC1945
:102BD00060934503709346038093470390934803A3
:102BE00061E088E00E94830361E087E00E94830344
:102BF000C0909805D0909905E0909A05F0909B05BB
:102C000020E030E044EB52E4C701B6010E94DC1939
:102C10000E94BA1A89EA95E00E949205A7019601DE
:102C200060E070E084EB92E40E94DB190E94BA1A23
:102C300086EA95E00E9492058FB7F89440913D0393
:102C400050913E0360913F03709140038FBF64E653
:102C500070E080E090E00E94BF0387E20E94FA0AE1
:102C600080FF4AC0BE016F5F7F4F88E20E94190B50
:102C7000863009F041C08A8190E0982F8827298109
:102C8000AC01422B5093D8054093D7052C8130E0FE
:102C9000322F22278B81282B3093DA052093D905F8
:102CA0008E8190E0982F88276D81862B9093DC058C
:102CB0008093DB05609129066623F1F060910F0691
:102CC00070911006461B570B5093D8054093D705BB
:102CD0004091110650911206241B350B3093DA05F2
:102CE0002093D9052091130630911406821B930B73
:102CF0009093DC058093DB0587E20E94FA0A81FF4E
:102D00004AC0BE016F5F7F4F88E10E94190B863079
:102D100009F041C08A8190E0982F88272981AC0171
:102D2000422B5093D2054093D1052C8130E0322FB5
:102D300022278B81282B3093D4052093D3058E81B5
:102D400090E0982F88276D81862B9093D6058093ED
:102D5000D505609129066623F1F06091090670910E
:102D60000A06461B570B5093D2054093D10540915C
:102D70000B0650910C06241B350B3093D405209381
:102D8000D30520910D0630910E06821B930B909374
:102D9000D6058093D5056AE070E080E090E00E945F
:102DA000BF036091D3057091D405072E000C880BEA
:102DB000990B0E94611B20911D0630911E064091C7
:102DC0001F06509120060E94C01B6B017C014B0125
:102DD0005C019B01AC010E943B1B882319F06DE84C
:102DE00071E01AC026013701E89477F82FEF3FEF22
:102DF0004FE75FE7C301B2010E943B1B811111C085
:102E00002FEF3FEF4FE75FE7C301B2010E945A1B6C
:102E100018163CF461E971E086E094E00E94580FD6
:102E200086C02FEF3FEF4FE75FE4C701B6010E9476
:102E3000F01A18161CF465E971E0EECF2FEF3FEFA2
:102E40004FE75FECC701B6010E945A1B87FDF3CF25
:102E500020E030E0A901C701B6010E945A1B87FF9C
:102E600011C0E0910604F09107040190F081E02D7B
:102E70006DE286E094E0099546015701B7FAB094F7
:102E8000B7F8B0942AE037ED43EA5BE3C501B4013B
:102E90000E94DC194B015C010E94C11A6B017C018C
:102EA0000E945F1B9B01AC01C501B4010E94DB19AC
:102EB0004B015C012AE0B701A60186E094E00E9484
:102EC0006D0F6BEB71E086E094E00E94580F20E0FC
:102ED00030E040E251E4C501B4010E94C01B4B0147
:102EE0005C010E94C11A6B01E12CF12C2AE0B701B0
:102EF000A60186E094E00E946D0FC701B6010E9412
:102F00005F1B9B01AC01C501B4010E94DB1920E0ED
:102F100030E040E251E40E94C01B0E94C11AAB01A4
:102F200060E070E02AE086E094E00E946D0F61E7C7
:102F300071E086E094E00E94580FDECE89E991E0CE
:102F40000E94340A8DEB91E00E94340A82ED91E0F8
:102F50000E94340AFFCFA8E6B0E0933008F481C99C
:102F6000E0E0F0E080C9109209041092080488EEB5
:102F700093E0A0E0B0E080930A0490930B04A09348
:102F80000C04B0930D0427E231E030930704209342
:102F900006042FEF3FEF3093130420931204109296
:102FA00059041092580480935A0490935B04A093A0
:102FB0005C04B0935D0487E391E0909357048093A1
:102FC000560481E08093AC059BE69093AD059EE1AD
:102FD0009093AE058093AF058093BB058093BC05AD
:102FE0008093BD0525EF30E03093B1052093B00507
:102FF00096E09093B2051092B3051092B40510922A
:10300000B5051092B6051092B7051092B80510924A
:10301000B9051092BA058093BE058093BF058093D1
:10302000C2058093C3058093C40522E02093C005A8
:103030009093C1059FEF9093C5051092C60510921D
:10304000C7058093C80594E09093C90597E09093D5
:10305000CA051092CB0593E09093CC059093CD05D3
:103060001092CE051092CF058093D005ECEAF5E0E2
:1030700020E030E011AE12AE13AE14AEDF01AB5B58
:10308000BF4F1D921D921D921C9213971C961D926C
:103090001D921D921C921397C90184559A4FDC0111
:1030A000A35ABF4F11961C921E92169611961C920F
:1030B0001E9216961D921C9234962E5F3F4F26301C
:1030C0003105C1F61092290689EA95E00E94900622
:1030D00086EA95E00E94900683EA95E00E949006B9
:1030E00080EA95E00E94900680E090E0A0EFB2E4D4
:1030F00080939C0590939D05A0939E05B0939F059A
:1031000089E199E0A1EFB0E4809398059093990547
:10311000A0939A05B0939B0587ED99EEA9E4B1E4DD
:103120008093940590939505A0939605B093970589
:1031300080E895E00E9432098CE695E00E94320911
:1031400088E595E00E94320984E495E00E94320906
:1031500080E395E00E9432098CE195E00E943209FB
:1031600088E095E00E94320984EF94E00E943209E1
:103170001092D8041092D70488EE93E0A0E0B0E05B
:103180008093D9049093DA04A093DB04B093DC0419
:1031900087E491E09093D6048093D5041092EC04D8
:1031A0001092EB041092EE041092ED041092F004D1
:1031B0001092EF041092F2041092F1046091F30463
:1031C0006E7F6D7F6093F3046695617081E0682780
:1031D0008CE00E94200361E08CE00E948303EEE318
:1031E000F1E0E491E093E504EFE1F1E0E491F0E057
:1031F000EE0FFF1FE950FF4F859194919093E704E4
:103200008093E60460E08DE00E9483038091F304E4
:1032100081FD04C061E08DE00E9420038DE0809379
:10322000E104EFE3F1E0E491E093E204E0E2F1E0B5
:10323000E491F0E0EE0FFF1FEB5FFE4F859194915C
:103240009093E4048093E3044FEF5FEFBA0140935F
:103250006204509363046093640470936504109255
:103260006A0410926B0410926C0410926D048FEF3C
:1032700099ECAAE9BBE38093720490937304A09342
:103280007404B093750480937A0490937B04A093A4
:103290007C04B0937D048093820490938304A09374
:1032A0008404B093850480938A0490938B04A09344
:1032B0008C04B0938D048093920490939304A09314
:1032C0009404B093950440939A0450939B046093A4
:1032D0009C0470939D048FEF90E09093A3048093DF
:1032E000A2044093A6045093A7046093A80470938B
:1032F000A9044093AE045093AF046093B00470935C
:10330000B1041092B6041092B70482E08093C7040F
:103310001092C8041092C9041092CA041092CB04EF
:103320001092CC041092CD041092CE041092D004CE
:103330001092CF041092D2041092D1041092B804CB
:103340000895991B79E004C0991F961708F0961B01
:10335000881F7A95C9F78095089597FB072E16F474
:10336000009407D077FD09D00E94C71907FC05D04B
:103370003EF4909581959F4F0895709561957F4F8C
:103380000895EE0FFF1F0590F491E02D0994AA1BFC
:10339000BB1B51E107C0AA1FBB1FA617B70710F040
:1033A000A61BB70B881F991F5A95A9F78095909572
:1033B000BC01CD0108955058BB27AA270E94F319DC
:1033C0000C94441C0E94361C38F00E943D1C20F0D6
:1033D00039F49F3F19F426F40C94331C0EF4E09555
:1033E000E7FB0C942D1CE92F0E94551C58F3BA17CB
:1033F000620773078407950720F079F4A6F50C940B
:10340000771C0EF4E0950B2EBA2FA02D0B01B901FD
:1034100090010C01CA01A0011124FF27591B99F04A
:10342000593F50F4503E68F11A16F040A22F232F56
:10343000342F4427585FF3CF469537952795A795A6
:10344000F0405395C9F77EF41F16BA0B620B730B4D
:10345000840BBAF09150A1F0FF0FBB1F661F771FBE
:10346000881FC2F70EC0BA0F621F731F841F48F473
:10347000879577956795B795F7959E3F08F0B0CFFC
:103480009395880F08F09927EE0F979587950895E3
:103490000E945C1A0C94441C0E943D1C58F00E942F
:1034A000361C40F029F45F3F29F00C942D1C51117B
:1034B0000C94781C0C94331C0E94551C68F39923BF
:1034C000B1F3552391F3951B550BBB27AA27621720
:1034D0007307840738F09F5F5F4F220F331F441F2D
:1034E000AA1FA9F335D00E2E3AF0E0E832D0915061
:1034F0005040E695001CCAF72BD0FE2F29D0660F4E
:10350000771F881FBB1F261737074807AB07B0E890
:1035100009F0BB0B802DBF01FF2793585F4F3AF096
:103520009E3F510578F00C942D1C0C94781C5F3F45
:10353000E4F3983ED4F3869577956795B795F7951C
:103540009F5FC9F7880F911D9695879597F9089504
:10355000E1E0660F771F881FBB1F621773078407A0
:10356000BA0720F0621B730B840BBA0BEE1F88F7AF
:10357000E09508950E94C11A6894B1110C94781CCA
:1035800008950E945D1C88F09F5798F0B92F9927E5
:10359000B751B0F0E1F0660F771F881F991F1AF03E
:1035A000BA95C9F714C0B13091F00E94771CB1E010
:1035B00008950C94771C672F782F8827B85F39F00F
:1035C000B93FCCF3869577956795B395D9F73EF4D7
:1035D00090958095709561957F4F8F4F9F4F08957F
:1035E0000E949C1B08F48FEF089519F416F40C94B4
:1035F000331C0C94401B0E945D1CB8F39923C9F343
:10360000B6F39F57550B87FF0E944E1B0024A0E680
:1036100040EA900180585695979528F4805C660F93
:10362000771F881F20F026173707480730F4621BE2
:10363000730B840B202931294A2BA69517940794E4
:10364000202531254A2758F7660F771F881F20F05D
:1036500026173707480730F4620B730B840B200DD5
:10366000311D411DA09581F7B901842F9158880F14
:103670009695879508950E949C1B880B990B089539
:103680009F3F31F0915020F4879577956795B795D6
:10369000880F911D9695879597F908959150504000
:1036A000660F771F881FD2F7089581E090E0F894A5
:1036B0000C94E11C0E949C1B08F481E00895E8949E
:1036C00009C097FB3EF490958095709561957F4F6A
:1036D0008F4F9F4F9923A9F0F92F96E9BB27939518
:1036E000F695879577956795B795F111F8CFFAF428
:1036F000BB0F11F460FF1BC06F5F7F4F8F4F9F4F59
:1037000016C0882311F096E911C0772321F09EE8B6
:10371000872F762F05C0662371F096E8862F70E01C
:1037200060E02AF09A95660F771F881FDAF7880FF6
:103730009695879597F90895990F0008550FAA0B4C
:10374000E0E8FEEF16161706E807F907C0F01216B4
:103750001306E407F50798F0621B730B840B950BB7
:1037600039F40A2661F0232B242B252B21F408950C
:103770000A2609F4A140A6958FEF811D811D0895A9
:103780000E94D31B0C94441C0E94361C38F00E94EB
:103790003D1C20F0952311F00C942D1C0C94331C2F
:1037A00011240C94781C0E94551C70F3959FC1F352
:1037B000950F50E0551F629FF001729FBB27F00DDF
:1037C000B11D639FAA27F00DB11DAA1F649F662734
:1037D000B00DA11D661F829F2227B00DA11D621F83
:1037E000739FB00DA11D621F839FA00D611D221F3D
:1037F000749F3327A00D611D231F849F600D211D21
:10380000822F762F6A2F11249F5750409AF0F1F0A3
:1038100088234AF0EE0FFF1FBB1F661F771F881F0C
:1038200091505040A9F79E3F510580F00C942D1CFB
:103830000C94781C5F3FE4F3983ED4F3869577951B
:103840006795B795F795E7959F5FC1F7FE2B880FB2
:10385000911D9695879597F9089597F99F6780E848
:1038600070E060E008959FEF80EC089500240A94D2
:103870001616170618060906089500240A9412164B
:103880001306140605060895092E0394000C11F47E
:10389000882352F0BB0F40F4BF2B11F460FF04C02B
:1038A0006F5F7F4F8F4F9F4F089557FD9058440F84
:1038B000551F59F05F3F71F04795880F97FB991F8F
:1038C00061F09F3F79F0879508951216130614064C
:1038D000551FF2CF4695F1DF08C0161617061806D9
:1038E000991FF1CF86957105610508940895E894B4
:1038F000BB2766277727CB0197F90895A1E21A2EF7
:10390000AA1BBB1BFD010DC0AA1FBB1FEE1FFF1F83
:10391000A217B307E407F50720F0A21BB30BE40BD3
:10392000F50B661F771F881F991F1A9469F760951A
:103930007095809590959B01AC01BD01CF010895D4
:10394000052E97FB1EF400940E94B71C57FD07D06C
:103950000E947E1C07FC03D04EF40C94B71C5095BB
:103960004095309521953F4F4F4F5F4F089590956B
:103970008095709561957F4F8F4F9F4F08950E945E
:10398000D21CA59F900DB49F900DA49F800D911DFA
:1039900011240895B7FF0C94BF1C0E94BF1C821B0A
:1039A000930B0895A29FB001B39FC001A39F700D18
:1039B000811D1124911DB29F700D811D1124911D37
:1039C000089510E0CDEED0E004C0FE010E94C119C0
:0C39D0002196CE3ED107C9F7F894FFCF36
:1039DC0078017801780178017801FFFFFFFF00E1A1
:1039EC00000000000000010000002000000040006A
:1039FC00000060000000001801F9033901DC02FA34
:103A0C00022E0100000000AD027D0275026102521F
:103A1C000251020000000092014C0CE601FE0179FB
:103A2C00019101000090420000A04100C180810082
:103A3C000000564D4450565F317C315F564D44501A
:103A4C00560D0A0049742073686F756C64206265AA
:103A5C0020776F726B696E67206E6F77006E616E88
:103A6C0000696E66006F7666004661696C6564205D
:103A7C00746F20636F6D6D756E696361746520770B
:103A8C00697468204C534D394453312E00446F7582
:103A9C00626C652D636865636B20776972696E670C
:103AAC002E0044656661756C742073657474696E60
:103ABC00677320696E207468697320736B65746317
:103ACC00682077696C6C20776F726B20666F722040
:103ADC00616E206F7574206F662074686520626F4C
:103AEC0078204C534D3944533120427265616B6FD1
:103AFC0075742C20627574206D6179206E65656417
:103B0C0020746F206265206D6F646966696564203E
:103B1C0069662074686520626F617264206A756DD5
:0A3B2C0070657273206172652E004F
:00000001FF
