:100000000C945D000C9485000C9485000C94850084
:100010000C9485000C9485000C9485000C9485004C
:100020000C9485000C9485000C9485000C941603A8
:100030000C9485000C9485000C9485000C9485002C
:100040000C94CC020C9485000C949A020C947402CB
:100050000C9485000C9485000C9485000C9485000C
:100060000C9485000C94850000000008000201003B
:100070000003040700000000000000000000000072
:10008000250028002B0000000000240027002A0083
:10009000040404040404040402020202020203032E
:1000A0000303030301020408102040800102040836
:1000B0001020010204081020D70311241FBECFEF27
:1000C000D8E0DEBFCDBF21E0A8E1B1E001C01D92C4
:1000D000A73EB207E1F711E0A0E0B1E0E8EEFCE0F6
:1000E00002C005900D92A831B107D9F710E0CDE517
:1000F000D0E004C02197FE010E940406CC35D10750
:10010000C9F70E9435040C9472060C94000090E02C
:10011000FC01EC55FF4F2491FC01E057FF4F849107
:10012000882399F090E0880F991FFC01EA57FF4F50
:10013000A591B491FC01E458FF4F859194918FB73C
:10014000F894EC91E22BEC938FBF089581E48093B7
:100150007C0080917A00806480937A0080917A009C
:1001600086FDFCCF809178002091790090E0922B61
:100170000895CF92DF92EF92FF920F931F93CF9348
:10018000DF936C017A018B01C0E0D0E0CE15DF0572
:1001900089F0D8016D918D01D601ED91FC9101900E
:1001A000F081E02DC6010995892B11F47E0102C072
:1001B0002196ECCFC701DF91CF911F910F91FF9056
:1001C000EF90DF90CF900895FC01918D828D98176C
:1001D00061F0828DDF01A80FB11D5D968C91928D2B
:1001E0009F5F9F73928F90E008958FEF9FEF089528
:1001F000FC01918D828D981731F0828DE80FF11DF1
:10020000858D90E008958FEF9FEF0895FC01918D0B
:10021000228D892F90E0805C9F4F821B91098F7304
:100220009927089582E291E00E94060121E0892B3E
:1002300009F420E0822F0895FC01848DDF01A80FCE
:10024000B11DA35ABF4F2C91848D90E001968F73FE
:100250009927848FA689B7892C93A089B1898C911D
:1002600080648C93938D848D981306C00288F389E3
:10027000E02D80818F7D80830895EF92FF920F9310
:100280001F93CF93DF93EC0181E0888F9B8D8C8D42
:10029000981305C0E889F989808185FD24C0F62E70
:1002A0000B8D10E00F5F1F4F0F731127E02E8C8D09
:1002B000E8120CC00FB607FCFACFE889F9898081F3
:1002C00085FFF5CFCE010E941C01F1CF8B8DFE0181
:1002D000E80FF11DE35AFF4FF0820B8FEA89FB898B
:1002E0008081806207C0EE89FF896083E889F9898F
:1002F00080818064808381E090E0DF91CF911F91C5
:100300000F91FF90EF900895CF93DF93EC01888DCC
:100310008823C9F0EA89FB89808185FD05C0A88909
:10032000B9898C9186FD0FC00FB607FCF5CF80818F
:1003300085FFF2CFA889B9898C9185FFEDCFCE01D9
:100340000E941C01E7CFDF91CF91089580E090E0FB
:10035000892B29F00E94120181110C94000008954C
:1003600090E0FC01E859FF4F3491FC01EC55FF4F40
:100370002491FC01E057FF4FE491EE2309F43BC0C8
:10038000332339F1333091F038F43130A9F0323081
:1003900001F584B58F7D12C0373091F03830A1F06F
:1003A0003430B9F4809180008F7D03C0809180004B
:1003B0008F77809380000DC084B58F7784BD09C08E
:1003C0008091B0008F7703C08091B0008F7D8093C3
:1003D000B000F0E0EE0FFF1FE458FF4FA591B4917D
:1003E0008FB7F894EC91611103C020952E2301C0C2
:1003F0002E2B2C938FBF08953FB7F89480911E0148
:1004000090911F01A0912001B091210126B5A89BD8
:1004100005C02F3F19F00196A11DB11D3FBFBA2F96
:10042000A92F982F8827820F911DA11DB11DBC01F6
:10043000CD0142E0660F771F881F991F4A95D1F7BB
:1004400008958F929F92AF92BF920F931F93CF9375
:10045000DF93CDB7DEB7A1970FB6F894DEBF0FBE1E
:10046000CDBF19A2423008F44AE08E010F5D1F4F44
:10047000842E912CA12CB12CA50194010E9441063F
:10048000E62FB901CA0101501109EA3014F4E05D08
:1004900001C0E95CD801EC93232B242B252B61F7B9
:1004A0000115110571F0F80101900020E9F731976D
:1004B000AF01401B510BB80182E291E00E94B900EC
:1004C00002C080E090E0A1960FB6F894DEBF0FBEA8
:1004D000CDBFDF91CF911F910F91BF90AF909F90B3
:1004E0008F9008950E940A061F920F920FB60F92E6
:1004F00011242F933F934F935F936F937F938F9329
:100500009F93AF93BF93EF93FF9382E291E00E949A
:100510001C01FF91EF91BF91AF919F918F917F91BE
:100520006F915F914F913F912F910F900FBE0F9060
:100530001F9018951F920F920FB60F9211242F93B0
:100540008F939F93EF93FF93E0913201F0913301EA
:100550008081E0913801F091390182FD12C09081D3
:1005600080913B018F5F8F7320913C01821751F086
:10057000E0913B01F0E0EE5DFE4F958F80933B01F3
:1005800001C08081FF91EF919F918F912F910F90EA
:100590000FBE0F901F9018951F920F920FB60F92DB
:1005A00011242F933F938F939F93AF93BF93809189
:1005B0001A0190911B01A0911C01B0911D01309175
:1005C000190123E0230F2D3720F40196A11DB11D41
:1005D00005C026E8230F0296A11DB11D2093190125
:1005E00080931A0190931B01A0931C01B0931D01ED
:1005F00080911E0190911F01A0912001B0912101D5
:100600000196A11DB11D80931E0190931F01A0931F
:100610002001B0932101BF91AF919F918F913F91A4
:100620002F910F900FBE0F901F9018951F920F9251
:100630000FB60F9211242F933F934F935F936F93B5
:100640007F938F939F93AF93BF93EF93FF9380918B
:10065000180187FF05C010928500109284001BC00E
:1006600020911801022E000C330B8091E30190E0E1
:100670002817390784F480911801082E000C990B73
:10068000FC01EE0FFF1F8E0F9F1FFC01E154FE4F78
:10069000808186FD15C0809118018F5F80931801BD
:1006A00020911801022E000C330B8091E30190E0A1
:1006B00028173907C4F4809118018C3064F113C0F5
:1006C00080911801082E000C990BFC01EE0FFF1F02
:1006D0008E0F9F1FFC01E154FE4F808160E08F73FD
:1006E0000E94B001D8CF809184009091850004963B
:1006F00080349C4918F480E49CE905C08091840012
:1007000090918500049690938900809388008FEFE4
:10071000809318013BC02091840030918500809126
:100720001801082E000C990BFC01EE0FFF1F8E0F15
:100730009F1FFC01E154FE4F81819281820F931F24
:10074000909389008093880080911801082E000CF6
:10075000990BFC01EE0FFF1F8E0F9F1FFC01E15450
:10076000FE4F808186FF12C080911801082E000C78
:10077000990BFC01EE0FFF1F8E0F9F1FFC01E15430
:10078000FE4F808161E08F730E94B001FF91EF9175
:10079000BF91AF919F918F917F916F915F914F9199
:1007A0003F912F910F900FBE0F901F9018951092B0
:1007B00025011092240188EE93E0A0E0B0E0809340
:1007C000260190932701A0932801B093290188E086
:1007D00091E0909323018093220185EC90E0909327
:1007E0002F0180932E0184EC90E09093310180934F
:1007F000300180EC90E0909333018093320181ECE2
:1008000090E0909335018093340182EC90E09093D6
:1008100037018093360186EC90E090933901809304
:10082000380110923B0110923C0110923D01109250
:100830003E018091E3018C30A0F491E0980F9093F9
:10084000E3018093E40190E0FC01EE0FFF1F8E0FA7
:100850009F1FFC01E154FE4F88EB9BE09283818354
:1008600008958FEF8093E4010895789484B58260B1
:1008700084BD84B5816084BD85B5826085BD85B544
:10088000816085BD80916E00816080936E001092C2
:10089000810080918100826080938100809181003D
:1008A00081608093810080918000816080938000CE
:1008B0008091B10084608093B1008091B00081602C
:1008C0008093B00080917A00846080937A00809158
:1008D0007A00826080937A0080917A0081608093B0
:1008E0007A0080917A00806880937A001092C1002B
:1008F000E0913201F091330182E08083E0912E019A
:10090000F0912F011082E0913001F09131018FECD4
:10091000808310923A01E0913601F091370186E030
:100920008083E0913401F091350180818061808382
:10093000E0913401F0913501808188608083E091FD
:100940003401F0913501808180688083E091340129
:10095000F091350180818F7D80838091E4018C301E
:1009600008F050C08AE00E9487008091E401E82FDF
:10097000F0E09F01220F331FE20FF31FE154FE4FFF
:100980009081907C9A6090831092E5011092E6012C
:100990006CE00E94F8052CE0829FB001112440E039
:1009A00050E09A01260F371FF901EE0FFF1F2E0F9F
:1009B0003F1FF901E154FE4F908196FD16C04F5F35
:1009C0005F4F4C30510569F781110FC010928000C4
:1009D00082E0809381001092850010928400B19A89
:1009E00080916F00826080936F00E091E401F0E0FD
:1009F000CF01880F991FE80FF91FE154FE4F808146
:100A0000806480838EE00E94870082E10E948700DC
:100A100060E08EE00E94B00161E082E10E94B001DE
:100A200008E810E0C8E5D2E064EB462E512C612CBA
:100A3000712C0E94A6006C01990FEE08FF08F7FECA
:100A400014C0E0912201F09123010190F081E02D8A
:100A50006DE282E291E0099566277727CB016C1958
:100A60007D098E099F094AE003C04AE0C701B6012B
:100A70000E94210242E050E064E171E082E291E0F4
:100A80000E94B9000E94FC014B015C0154E6C52E96
:100A9000D12CE12CF12C0E94FC01DC01CB01881946
:100AA0009909AA09BB09883E9340A105B10558F0F0
:100AB00041E0C41AD108E108F10858EE850E53E070
:100AC000951EA11CB11CC114D104E104F10419F755
:100AD0000E94A600092E000CAA0BBB0B9C01AD01C5
:100AE000285C310941095109A3EBB0E00E942E06B0
:100AF0002CE231E040E050E00E940F06C9012032B4
:100B000062E0360741055105E4F557FD06C0253B77
:100B100031052CF084EB90E002C080E090E0209161
:100B2000E5016801C21AD10827FDD394D601AA0FA6
:100B3000BB1FAA0FBB1F6D01BB0FEE08FF08209162
:100B4000E601AE01421B510927FD53959A01220F80
:100B5000331F220F331FA901330F660B770B9A0146
:100B6000AB012C193D094E095F09DC010E943906D1
:100B7000A30192010E940F06C20ED31EE41EF51EB1
:100B8000C6012091E4012C3080F53091E501A801E7
:100B9000431B510937FD5395440F551F440F551FF3
:100BA0008417950784F03091E601BE01631B71093B
:100BB00037FD7395660F771F660F771FAC016817B7
:100BC00079070CF4AB01CA010297880F991F4FB740
:100BD000F89430E0F901EE0FFF1F2E0F3F1FF901CF
:100BE000E154FE4F928381834FBF0E94A60121CF23
:100BF000991B79E004C0991F961708F0961B881F6F
:100C00007A95C9F780950895EE0FFF1F0590F4912E
:100C1000E02D099481E090E0F8940C947206052E82
:100C200097FB1EF400940E94260657FD07D00E94F1
:100C3000410607FC03D04EF40C94260650954095CF
:100C4000309521953F4F4F4F5F4F08959095809578
:100C5000709561957F4F8F4F9F4F08950E94630657
:100C6000A59F900DB49F900DA49F800D911D112400
:100C70000895B7FF0C942E060E942E06821B930B3C
:100C80000895A1E21A2EAA1BBB1BFD010DC0AA1FCD
:100C9000BB1FEE1FFF1FA217B307E407F50720F0E5
:100CA000A21BB30BE40BF50B661F771F881F991F60
:100CB0001A9469F760957095809590959B01AC01A9
:100CC000BD01CF010895A29FB001B39FC001A39FB2
:100CD000700D811D1124911DB29F700D811D112475
:080CE000911D0895F894FFCF67
:100CE80001000000000000003D01B9000601E40019
:080CF800F80084010D0A000060
:00000001FF
